{
  "contractName": "Post",
  "abi": [
    {
      "inputs": [
        {
          "internalType": "address",
          "name": "manager_init",
          "type": "address"
        },
        {
          "internalType": "string",
          "name": "content_init",
          "type": "string"
        },
        {
          "internalType": "string",
          "name": "name_init",
          "type": "string"
        }
      ],
      "stateMutability": "nonpayable",
      "type": "constructor"
    },
    {
      "inputs": [],
      "name": "balanceRef",
      "outputs": [
        {
          "internalType": "uint256",
          "name": "",
          "type": "uint256"
        }
      ],
      "stateMutability": "view",
      "type": "function"
    },
    {
      "inputs": [],
      "name": "completed",
      "outputs": [
        {
          "internalType": "bool",
          "name": "",
          "type": "bool"
        }
      ],
      "stateMutability": "view",
      "type": "function"
    },
    {
      "inputs": [],
      "name": "content",
      "outputs": [
        {
          "internalType": "string",
          "name": "",
          "type": "string"
        }
      ],
      "stateMutability": "view",
      "type": "function"
    },
    {
      "inputs": [],
      "name": "manager",
      "outputs": [
        {
          "internalType": "address",
          "name": "",
          "type": "address"
        }
      ],
      "stateMutability": "view",
      "type": "function"
    },
    {
      "inputs": [],
      "name": "name",
      "outputs": [
        {
          "internalType": "string",
          "name": "",
          "type": "string"
        }
      ],
      "stateMutability": "view",
      "type": "function"
    },
    {
      "inputs": [],
      "name": "naycount",
      "outputs": [
        {
          "internalType": "uint256",
          "name": "",
          "type": "uint256"
        }
      ],
      "stateMutability": "view",
      "type": "function"
    },
    {
      "inputs": [],
      "name": "nayprice",
      "outputs": [
        {
          "internalType": "uint256",
          "name": "",
          "type": "uint256"
        }
      ],
      "stateMutability": "view",
      "type": "function"
    },
    {
      "inputs": [
        {
          "internalType": "address",
          "name": "",
          "type": "address"
        }
      ],
      "name": "nays",
      "outputs": [
        {
          "internalType": "uint256",
          "name": "",
          "type": "uint256"
        }
      ],
      "stateMutability": "view",
      "type": "function"
    },
    {
      "inputs": [],
      "name": "timeStamp",
      "outputs": [
        {
          "internalType": "uint256",
          "name": "",
          "type": "uint256"
        }
      ],
      "stateMutability": "view",
      "type": "function"
    },
    {
      "inputs": [],
      "name": "total",
      "outputs": [
        {
          "internalType": "uint256",
          "name": "",
          "type": "uint256"
        }
      ],
      "stateMutability": "view",
      "type": "function"
    },
    {
      "inputs": [],
      "name": "verdict",
      "outputs": [
        {
          "internalType": "bool",
          "name": "",
          "type": "bool"
        }
      ],
      "stateMutability": "view",
      "type": "function"
    },
    {
      "inputs": [
        {
          "internalType": "uint256",
          "name": "",
          "type": "uint256"
        }
      ],
      "name": "voted",
      "outputs": [
        {
          "internalType": "address payable",
          "name": "",
          "type": "address"
        }
      ],
      "stateMutability": "view",
      "type": "function"
    },
    {
      "inputs": [],
      "name": "yaycount",
      "outputs": [
        {
          "internalType": "uint256",
          "name": "",
          "type": "uint256"
        }
      ],
      "stateMutability": "view",
      "type": "function"
    },
    {
      "inputs": [],
      "name": "yayprice",
      "outputs": [
        {
          "internalType": "uint256",
          "name": "",
          "type": "uint256"
        }
      ],
      "stateMutability": "view",
      "type": "function"
    },
    {
      "inputs": [
        {
          "internalType": "address",
          "name": "",
          "type": "address"
        }
      ],
      "name": "yays",
      "outputs": [
        {
          "internalType": "uint256",
          "name": "",
          "type": "uint256"
        }
      ],
      "stateMutability": "view",
      "type": "function"
    },
    {
      "inputs": [],
      "name": "complete",
      "outputs": [],
      "stateMutability": "payable",
      "type": "function"
    },
    {
      "inputs": [],
      "name": "updateCost",
      "outputs": [],
      "stateMutability": "nonpayable",
      "type": "function"
    },
    {
      "inputs": [],
      "name": "voteYay",
      "outputs": [],
      "stateMutability": "payable",
      "type": "function"
    },
    {
      "inputs": [],
      "name": "voteNay",
      "outputs": [],
      "stateMutability": "payable",
      "type": "function"
    },
    {
      "inputs": [],
      "name": "getSummary",
      "outputs": [
        {
          "internalType": "address",
          "name": "",
          "type": "address"
        },
        {
          "internalType": "string",
          "name": "",
          "type": "string"
        },
        {
          "internalType": "string",
          "name": "",
          "type": "string"
        },
        {
          "internalType": "uint256",
          "name": "",
          "type": "uint256"
        },
        {
          "internalType": "uint256",
          "name": "",
          "type": "uint256"
        },
        {
          "internalType": "uint256",
          "name": "",
          "type": "uint256"
        },
        {
          "internalType": "uint256",
          "name": "",
          "type": "uint256"
        },
        {
          "internalType": "bool",
          "name": "",
          "type": "bool"
        },
        {
          "internalType": "bool",
          "name": "",
          "type": "bool"
        },
        {
          "internalType": "uint256",
          "name": "",
          "type": "uint256"
        }
      ],
      "stateMutability": "view",
      "type": "function"
    }
  ],
  "bytecode": "0x608060405266470de4df820000600455600060075560006008556000600c60006101000a81548160ff0219169083151502179055506000600d553480156200004657600080fd5b5060405162001e2b38038062001e2b83398181016040528101906200006c919062000306565b806002908051906020019062000084929190620001cd565b5082600160006101000a81548173ffffffffffffffffffffffffffffffffffffffff021916908373ffffffffffffffffffffffffffffffffffffffff160217905550600160009054906101000a900473ffffffffffffffffffffffffffffffffffffffff166000806101000a81548173ffffffffffffffffffffffffffffffffffffffff021916908373ffffffffffffffffffffffffffffffffffffffff160217905550816003908051906020019062000140929190620001cd565b50620001516200015a60201b60201c565b505050620006a6565b60146008546007546200016e9190620003f5565b6200017a9190620003f5565b600a6007546200018b9190620003f5565b6004546200019a91906200048a565b620001a6919062000452565b600581905550600554600454620001be9190620004eb565b60068190555047600d81905550565b828054620001db906200059a565b90600052602060002090601f016020900481019282620001ff57600085556200024b565b82601f106200021a57805160ff19168380011785556200024b565b828001600101855582156200024b579182015b828111156200024a5782518255916020019190600101906200022d565b5b5090506200025a91906200025e565b5090565b5b80821115620002795760008160009055506001016200025f565b5090565b6000620002946200028e84620003c2565b6200038e565b905082815260208101848484011115620002ad57600080fd5b620002ba84828562000564565b509392505050565b600081519050620002d3816200068c565b92915050565b600082601f830112620002eb57600080fd5b8151620002fd8482602086016200027d565b91505092915050565b6000806000606084860312156200031c57600080fd5b60006200032c86828701620002c2565b935050602084015167ffffffffffffffff8111156200034a57600080fd5b6200035886828701620002d9565b925050604084015167ffffffffffffffff8111156200037657600080fd5b6200038486828701620002d9565b9150509250925092565b6000604051905081810181811067ffffffffffffffff82111715620003b857620003b76200065d565b5b8060405250919050565b600067ffffffffffffffff821115620003e057620003df6200065d565b5b601f19601f8301169050602081019050919050565b600062000402826200055a565b91506200040f836200055a565b9250827fffffffffffffffffffffffffffffffffffffffffffffffffffffffffffffffff03821115620004475762000446620005d0565b5b828201905092915050565b60006200045f826200055a565b91506200046c836200055a565b9250826200047f576200047e620005ff565b5b828204905092915050565b600062000497826200055a565b9150620004a4836200055a565b9250817fffffffffffffffffffffffffffffffffffffffffffffffffffffffffffffffff0483118215151615620004e057620004df620005d0565b5b828202905092915050565b6000620004f8826200055a565b915062000505836200055a565b9250828210156200051b576200051a620005d0565b5b828203905092915050565b600062000533826200053a565b9050919050565b600073ffffffffffffffffffffffffffffffffffffffff82169050919050565b6000819050919050565b60005b838110156200058457808201518184015260208101905062000567565b8381111562000594576000848401525b50505050565b60006002820490506001821680620005b357607f821691505b60208210811415620005ca57620005c96200062e565b5b50919050565b7f4e487b7100000000000000000000000000000000000000000000000000000000600052601160045260246000fd5b7f4e487b7100000000000000000000000000000000000000000000000000000000600052601260045260246000fd5b7f4e487b7100000000000000000000000000000000000000000000000000000000600052602260045260246000fd5b7f4e487b7100000000000000000000000000000000000000000000000000000000600052604160045260246000fd5b620006978162000526565b8114620006a357600080fd5b50565b61177580620006b66000396000f3fe60806040526004361061011f5760003560e01c80638b563f62116100a0578063b0acb3c911610064578063b0acb3c914610373578063befa4bfb1461039e578063c7af3dd1146103c9578063d6dd6c26146103e0578063d716dd1a1461040b5761011f565b80638b563f62146102995780638fbb38ff146102c45780639566eb691461030157806395d765e91461030b5780639d9a7fe9146103485761011f565b8063481c6a75116100e7578063481c6a75146101e3578063522e11771461020e5780636aba253c146102185780637eb84be3146102435780638a4d5a671461026e5761011f565b806306fdde03146101245780630ab0df871461014f5780632ddbd13a1461017a5780634051ddac146101a557806340b7cba6146101d9575b600080fd5b34801561013057600080fd5b50610139610448565b60405161014691906113fd565b60405180910390f35b34801561015b57600080fd5b506101646104d6565b604051610171919061141f565b60405180910390f35b34801561018657600080fd5b5061018f6104dc565b60405161019c919061141f565b60405180910390f35b3480156101b157600080fd5b506101ba6104e2565b6040516101d09a99989796959493929190611338565b60405180910390f35b6101e161065e565b005b3480156101ef57600080fd5b506101f86108a5565b6040516102059190611302565b60405180910390f35b6102166108cb565b005b34801561022457600080fd5b5061022d610e08565b60405161023a91906113e2565b60405180910390f35b34801561024f57600080fd5b50610258610e1b565b604051610265919061141f565b60405180910390f35b34801561027a57600080fd5b50610283610e21565b60405161029091906113fd565b60405180910390f35b3480156102a557600080fd5b506102ae610eaf565b6040516102bb919061141f565b60405180910390f35b3480156102d057600080fd5b506102eb60048036038101906102e69190611264565b610eb5565b6040516102f8919061131d565b60405180910390f35b610309610ef4565b005b34801561031757600080fd5b50610332600480360381019061032d919061123b565b611155565b60405161033f919061141f565b60405180910390f35b34801561035457600080fd5b5061035d61116d565b60405161036a91906113e2565b60405180910390f35b34801561037f57600080fd5b50610388611180565b604051610395919061141f565b60405180910390f35b3480156103aa57600080fd5b506103b3611186565b6040516103c0919061141f565b60405180910390f35b3480156103d557600080fd5b506103de61118c565b005b3480156103ec57600080fd5b506103f56111f3565b604051610402919061141f565b60405180910390f35b34801561041757600080fd5b50610432600480360381019061042d919061123b565b6111f9565b60405161043f919061141f565b60405180910390f35b60028054610455906115f8565b80601f0160208091040260200160405190810160405280929190818152602001828054610481906115f8565b80156104ce5780601f106104a3576101008083540402835291602001916104ce565b820191906000526020600020905b8154815290600101906020018083116104b157829003601f168201915b505050505081565b600e5481565b60045481565b600060608060008060008060008060003060026003600554600654600754600854600c60009054906101000a900460ff16600c60019054906101000a900460ff16600d54888054610532906115f8565b80601f016020809104026020016040519081016040528092919081815260200182805461055e906115f8565b80156105ab5780601f10610580576101008083540402835291602001916105ab565b820191906000526020600020905b81548152906001019060200180831161058e57829003601f168201915b505050505098508780546105be906115f8565b80601f01602080910402602001604051908101604052809291908181526020018280546105ea906115f8565b80156106375780601f1061060c57610100808354040283529160200191610637565b820191906000526020600020905b81548152906001019060200180831161061a57829003601f168201915b50505050509750995099509950995099509950995099509950995090919293949596979899565b60008054906101000a900473ffffffffffffffffffffffffffffffffffffffff1673ffffffffffffffffffffffffffffffffffffffff163373ffffffffffffffffffffffffffffffffffffffff1614156106da576000600c60016101000a81548160ff0219169083151502179055506106d56108cb565b6108a3565b6000600960003373ffffffffffffffffffffffffffffffffffffffff1673ffffffffffffffffffffffffffffffffffffffff1681526020019081526020016000205414801561076857506000600a60003373ffffffffffffffffffffffffffffffffffffffff1673ffffffffffffffffffffffffffffffffffffffff16815260200190815260200160002054145b156107d157600b339080600181540180825580915050600190039060005260206000200160009091909190916101000a81548173ffffffffffffffffffffffffffffffffffffffff021916908373ffffffffffffffffffffffffffffffffffffffff1602179055505b6006543410156107e057600080fd5b6003600a60003373ffffffffffffffffffffffffffffffffffffffff1673ffffffffffffffffffffffffffffffffffffffff16815260200190815260200160002054111561082d57600080fd5b600a60003373ffffffffffffffffffffffffffffffffffffffff1673ffffffffffffffffffffffffffffffffffffffff168152602001908152602001600020600081548092919061087d9061162a565b9190505550600860008154809291906108959061162a565b91905055506108a261118c565b5b565b600160009054906101000a900473ffffffffffffffffffffffffffffffffffffffff1681565b60008054906101000a900473ffffffffffffffffffffffffffffffffffffffff1673ffffffffffffffffffffffffffffffffffffffff163373ffffffffffffffffffffffffffffffffffffffff161415610e06576001600c60006101000a81548160ff02191690831515021790555047600d8190555060011515600c60019054906101000a900460ff1615151415610bb35760005b600b80549050811015610bad57600060096000600b84815481106109ad577f4e487b7100000000000000000000000000000000000000000000000000000000600052603260045260246000fd5b9060005260206000200160009054906101000a900473ffffffffffffffffffffffffffffffffffffffff1673ffffffffffffffffffffffffffffffffffffffff1673ffffffffffffffffffffffffffffffffffffffff168152602001908152602001600020541115610b9a57600b8181548110610a53577f4e487b7100000000000000000000000000000000000000000000000000000000600052603260045260246000fd5b9060005260206000200160009054906101000a900473ffffffffffffffffffffffffffffffffffffffff1673ffffffffffffffffffffffffffffffffffffffff166108fc6064605f600754600d5460096000600b8981548110610adf577f4e487b7100000000000000000000000000000000000000000000000000000000600052603260045260246000fd5b9060005260206000200160009054906101000a900473ffffffffffffffffffffffffffffffffffffffff1673ffffffffffffffffffffffffffffffffffffffff1673ffffffffffffffffffffffffffffffffffffffff16815260200190815260200160002054610b4f91906114dd565b610b5991906114ac565b610b6391906114dd565b610b6d91906114ac565b9081150290604051600060405180830381858888f19350505050158015610b98573d6000803e3d6000fd5b505b8080610ba59061162a565b915050610960565b50610e05565b60005b600b80549050811015610e03576000600a6000600b8481548110610c03577f4e487b7100000000000000000000000000000000000000000000000000000000600052603260045260246000fd5b9060005260206000200160009054906101000a900473ffffffffffffffffffffffffffffffffffffffff1673ffffffffffffffffffffffffffffffffffffffff1673ffffffffffffffffffffffffffffffffffffffff168152602001908152602001600020541115610df057600b8181548110610ca9577f4e487b7100000000000000000000000000000000000000000000000000000000600052603260045260246000fd5b9060005260206000200160009054906101000a900473ffffffffffffffffffffffffffffffffffffffff1673ffffffffffffffffffffffffffffffffffffffff166108fc6064605f600854600d54600a6000600b8981548110610d35577f4e487b7100000000000000000000000000000000000000000000000000000000600052603260045260246000fd5b9060005260206000200160009054906101000a900473ffffffffffffffffffffffffffffffffffffffff1673ffffffffffffffffffffffffffffffffffffffff1673ffffffffffffffffffffffffffffffffffffffff16815260200190815260200160002054610da591906114dd565b610daf91906114ac565b610db991906114dd565b610dc391906114ac565b9081150290604051600060405180830381858888f19350505050158015610dee573d6000803e3d6000fd5b505b8080610dfb9061162a565b915050610bb6565b505b5b565b600c60019054906101000a900460ff1681565b60085481565b60038054610e2e906115f8565b80601f0160208091040260200160405190810160405280929190818152602001828054610e5a906115f8565b8015610ea75780601f10610e7c57610100808354040283529160200191610ea7565b820191906000526020600020905b815481529060010190602001808311610e8a57829003601f168201915b505050505081565b60065481565b600b8181548110610ec557600080fd5b906000526020600020016000915054906101000a900473ffffffffffffffffffffffffffffffffffffffff1681565b600c60009054906101000a900460ff1615610f0e57600080fd5b60008054906101000a900473ffffffffffffffffffffffffffffffffffffffff1673ffffffffffffffffffffffffffffffffffffffff163373ffffffffffffffffffffffffffffffffffffffff161415610f8a576001600c60016101000a81548160ff021916908315150217905550610f856108cb565b611153565b6000600960003373ffffffffffffffffffffffffffffffffffffffff1673ffffffffffffffffffffffffffffffffffffffff1681526020019081526020016000205414801561101857506000600a60003373ffffffffffffffffffffffffffffffffffffffff1673ffffffffffffffffffffffffffffffffffffffff16815260200190815260200160002054145b1561108157600b339080600181540180825580915050600190039060005260206000200160009091909190916101000a81548173ffffffffffffffffffffffffffffffffffffffff021916908373ffffffffffffffffffffffffffffffffffffffff1602179055505b60055434101561109057600080fd5b6003600960003373ffffffffffffffffffffffffffffffffffffffff1673ffffffffffffffffffffffffffffffffffffffff1681526020019081526020016000205411156110dd57600080fd5b600960003373ffffffffffffffffffffffffffffffffffffffff1673ffffffffffffffffffffffffffffffffffffffff168152602001908152602001600020600081548092919061112d9061162a565b9190505550600760008154809291906111459061162a565b919050555061115261118c565b5b565b60096020528060005260406000206000915090505481565b600c60009054906101000a900460ff1681565b600d5481565b60055481565b601460085460075461119e9190611456565b6111a89190611456565b600a6007546111b79190611456565b6004546111c491906114dd565b6111ce91906114ac565b6005819055506005546004546111e49190611537565b60068190555047600d81905550565b60075481565b600a6020528060005260406000206000915090505481565b60008135905061122081611711565b92915050565b60008135905061123581611728565b92915050565b60006020828403121561124d57600080fd5b600061125b84828501611211565b91505092915050565b60006020828403121561127657600080fd5b600061128484828501611226565b91505092915050565b6112968161157d565b82525050565b6112a58161156b565b82525050565b6112b48161158f565b82525050565b60006112c58261143a565b6112cf8185611445565b93506112df8185602086016115c5565b6112e881611700565b840191505092915050565b6112fc816115bb565b82525050565b6000602082019050611317600083018461129c565b92915050565b6000602082019050611332600083018461128d565b92915050565b60006101408201905061134e600083018d61129c565b8181036020830152611360818c6112ba565b90508181036040830152611374818b6112ba565b9050611383606083018a6112f3565b61139060808301896112f3565b61139d60a08301886112f3565b6113aa60c08301876112f3565b6113b760e08301866112ab565b6113c56101008301856112ab565b6113d36101208301846112f3565b9b9a5050505050505050505050565b60006020820190506113f760008301846112ab565b92915050565b6000602082019050818103600083015261141781846112ba565b905092915050565b600060208201905061143460008301846112f3565b92915050565b600081519050919050565b600082825260208201905092915050565b6000611461826115bb565b915061146c836115bb565b9250827fffffffffffffffffffffffffffffffffffffffffffffffffffffffffffffffff038211156114a1576114a0611673565b5b828201905092915050565b60006114b7826115bb565b91506114c2836115bb565b9250826114d2576114d16116a2565b5b828204905092915050565b60006114e8826115bb565b91506114f3836115bb565b9250817fffffffffffffffffffffffffffffffffffffffffffffffffffffffffffffffff048311821515161561152c5761152b611673565b5b828202905092915050565b6000611542826115bb565b915061154d836115bb565b9250828210156115605761155f611673565b5b828203905092915050565b60006115768261159b565b9050919050565b60006115888261159b565b9050919050565b60008115159050919050565b600073ffffffffffffffffffffffffffffffffffffffff82169050919050565b6000819050919050565b60005b838110156115e35780820151818401526020810190506115c8565b838111156115f2576000848401525b50505050565b6000600282049050600182168061161057607f821691505b60208210811415611624576116236116d1565b5b50919050565b6000611635826115bb565b91507fffffffffffffffffffffffffffffffffffffffffffffffffffffffffffffffff82141561166857611667611673565b5b600182019050919050565b7f4e487b7100000000000000000000000000000000000000000000000000000000600052601160045260246000fd5b7f4e487b7100000000000000000000000000000000000000000000000000000000600052601260045260246000fd5b7f4e487b7100000000000000000000000000000000000000000000000000000000600052602260045260246000fd5b6000601f19601f8301169050919050565b61171a8161156b565b811461172557600080fd5b50565b611731816115bb565b811461173c57600080fd5b5056fea264697066735822122073b1f9e2a825b210cbfefb0ca145849fb1a6496605acea91f4aebb883566a16e64736f6c63430008000033",
  "immutableReferences": {},
  "source": "// SPDX-License-Identifier: MIT\r\npragma solidity ^0.8.0;\r\n\r\ncontract Crowdly {\r\n    address[] public deployedPosts;\r\n\r\n    function createPost(string memory content, string memory name)\r\n        public\r\n        returns (address[] memory)\r\n    {\r\n        Post newPost = new Post(msg.sender, content, name);\r\n        deployedPosts.push(address(newPost));\r\n        return deployedPosts;\r\n    }\r\n\r\n    function getDeployedPosts() public view returns (address[] memory) {\r\n        return deployedPosts;\r\n    }\r\n}\r\n\r\ncontract Post {\r\n    address tempAddress;\r\n\r\n    address public manager;\r\n    string public name;\r\n    string public content;\r\n\r\n    uint256 public total = 20000000000000000;\r\n    uint256 public yayprice;\r\n    uint256 public nayprice;\r\n    uint256 public yaycount = 0;\r\n    uint256 public naycount = 0;\r\n    mapping(address => uint256) public yays;\r\n    mapping(address => uint256) public nays;\r\n    address payable[] public voted;\r\n    bool public completed = false;\r\n    bool public verdict;\r\n    uint256 public balanceRef = 0;\r\n    uint256 public timeStamp;\r\n\r\n    modifier active() {\r\n        require(!completed);\r\n        _;\r\n    }\r\n\r\n    function complete() public payable {\r\n        if (msg.sender == tempAddress) {\r\n            completed = true;\r\n            balanceRef = address(this).balance;\r\n            if (verdict == true) {\r\n                for (uint256 i = 0; i < voted.length; i++) {\r\n                    if (yays[voted[i]] > 0) {\r\n                        voted[i].transfer(\r\n                            (((yays[voted[i]] * balanceRef) / (yaycount)) *\r\n                                95) / 100\r\n                        );\r\n                    }\r\n                }\r\n            } else {\r\n                for (uint256 i = 0; i < voted.length; i++) {\r\n                    if (nays[voted[i]] > 0) {\r\n                        voted[i].transfer(\r\n                            (((nays[voted[i]] * balanceRef) / (naycount)) *\r\n                                95) / 100\r\n                        );\r\n                    }\r\n                }\r\n            }\r\n        }\r\n    }\r\n\r\n    function updateCost() public {\r\n        yayprice = ((total * (yaycount + 10)) / (yaycount + naycount + 20));\r\n        nayprice = total - yayprice;\r\n        balanceRef = address(this).balance;\r\n    }\r\n\r\n    function voteYay() public payable active {\r\n        if (msg.sender == tempAddress) {\r\n            verdict = true;\r\n            complete();\r\n        } else {\r\n            if (yays[msg.sender] == 0 && nays[msg.sender] == 0) {\r\n                voted.push(payable(msg.sender));\r\n            }\r\n            require(msg.value >= yayprice);\r\n            require(yays[msg.sender] <= 3);\r\n\r\n            yays[msg.sender]++;\r\n            yaycount++;\r\n            updateCost();\r\n        }\r\n    }\r\n\r\n    function voteNay() public payable {\r\n        if (msg.sender == tempAddress) {\r\n            verdict = false;\r\n            complete();\r\n        } else {\r\n            if (yays[msg.sender] == 0 && nays[msg.sender] == 0) {\r\n                voted.push(payable(msg.sender));\r\n            }\r\n            require(msg.value >= nayprice);\r\n            require(nays[msg.sender] <= 3);\r\n\r\n            nays[msg.sender]++;\r\n            naycount++;\r\n            updateCost();\r\n        }\r\n    }\r\n\r\n    function getSummary()\r\n        public\r\n        view\r\n        returns (\r\n            address,\r\n            string memory,\r\n            string memory,\r\n            uint256,\r\n            uint256,\r\n            uint256,\r\n            uint256,\r\n            bool,\r\n            bool,\r\n            uint256\r\n        )\r\n    {\r\n        return (\r\n            address(this),\r\n            name,\r\n            content,\r\n            yayprice,\r\n            nayprice,\r\n            yaycount,\r\n            naycount,\r\n            completed,\r\n            verdict,\r\n            balanceRef\r\n        );\r\n    }\r\n\r\n    constructor(\r\n        address manager_init,\r\n        string memory content_init,\r\n        string memory name_init\r\n    ) {\r\n        name = name_init;\r\n        manager = manager_init;\r\n        tempAddress = manager;\r\n        content = content_init;\r\n        updateCost();\r\n    }\r\n}\r\n",
  "sourcePath": "D:/blockchain/crowdly/ethereum/contracts/Crowdly.sol",
  "compiler": {
    "name": "solc",
    "version": "0.8.0+commit.c7dfd78e.Emscripten.clang"
  },
  "schemaVersion": "3.3.4",
  "updatedAt": "2021-04-03T15:19:35.932Z",
  "devdoc": {
    "kind": "dev",
    "methods": {},
    "version": 1
  },
  "userdoc": {
    "kind": "user",
    "methods": {},
    "version": 1
  }
}