{
  "contractName": "Market",
  "abi": [
    {
      "inputs": [
        {
          "internalType": "uint256",
          "name": "_fee",
          "type": "uint256"
        },
        {
          "internalType": "address",
          "name": "_token",
          "type": "address"
        }
      ],
      "stateMutability": "nonpayable",
      "type": "constructor"
    },
    {
      "inputs": [],
      "name": "org",
      "outputs": [
        {
          "internalType": "address",
          "name": "",
          "type": "address"
        }
      ],
      "stateMutability": "view",
      "type": "function",
      "constant": true
    },
    {
      "inputs": [
        {
          "internalType": "uint256",
          "name": "",
          "type": "uint256"
        }
      ],
      "name": "pages",
      "outputs": [
        {
          "internalType": "address",
          "name": "",
          "type": "address"
        }
      ],
      "stateMutability": "view",
      "type": "function",
      "constant": true
    },
    {
      "inputs": [
        {
          "internalType": "address",
          "name": "",
          "type": "address"
        }
      ],
      "name": "rem_reactions",
      "outputs": [
        {
          "internalType": "uint256",
          "name": "",
          "type": "uint256"
        }
      ],
      "stateMutability": "view",
      "type": "function",
      "constant": true
    },
    {
      "inputs": [
        {
          "internalType": "address",
          "name": "",
          "type": "address"
        }
      ],
      "name": "subscribers",
      "outputs": [
        {
          "internalType": "uint256",
          "name": "",
          "type": "uint256"
        }
      ],
      "stateMutability": "view",
      "type": "function",
      "constant": true
    },
    {
      "inputs": [],
      "name": "subscription_fee",
      "outputs": [
        {
          "internalType": "uint256",
          "name": "",
          "type": "uint256"
        }
      ],
      "stateMutability": "view",
      "type": "function",
      "constant": true
    },
    {
      "inputs": [],
      "name": "token",
      "outputs": [
        {
          "internalType": "address",
          "name": "",
          "type": "address"
        }
      ],
      "stateMutability": "view",
      "type": "function",
      "constant": true
    },
    {
      "inputs": [],
      "name": "usdc",
      "outputs": [
        {
          "internalType": "contract ERC20",
          "name": "",
          "type": "address"
        }
      ],
      "stateMutability": "view",
      "type": "function",
      "constant": true
    },
    {
      "inputs": [
        {
          "internalType": "uint256",
          "name": "amount",
          "type": "uint256"
        }
      ],
      "name": "deposit",
      "outputs": [
        {
          "internalType": "bool",
          "name": "",
          "type": "bool"
        }
      ],
      "stateMutability": "nonpayable",
      "type": "function"
    },
    {
      "inputs": [
        {
          "internalType": "string",
          "name": "_name",
          "type": "string"
        },
        {
          "internalType": "uint256",
          "name": "nstocks",
          "type": "uint256"
        }
      ],
      "name": "ipo",
      "outputs": [
        {
          "internalType": "address",
          "name": "",
          "type": "address"
        }
      ],
      "stateMutability": "nonpayable",
      "type": "function"
    },
    {
      "inputs": [
        {
          "internalType": "uint256",
          "name": "validity",
          "type": "uint256"
        }
      ],
      "name": "subscribe",
      "outputs": [],
      "stateMutability": "nonpayable",
      "type": "function"
    },
    {
      "inputs": [],
      "name": "isSubscriber",
      "outputs": [
        {
          "internalType": "uint256",
          "name": "",
          "type": "uint256"
        }
      ],
      "stateMutability": "nonpayable",
      "type": "function"
    },
    {
      "inputs": [
        {
          "internalType": "address",
          "name": "page_addr",
          "type": "address"
        }
      ],
      "name": "like",
      "outputs": [],
      "stateMutability": "nonpayable",
      "type": "function"
    },
    {
      "inputs": [
        {
          "internalType": "address",
          "name": "page_addr",
          "type": "address"
        },
        {
          "internalType": "uint256",
          "name": "nstocks",
          "type": "uint256"
        },
        {
          "internalType": "uint256",
          "name": "price",
          "type": "uint256"
        }
      ],
      "name": "bid",
      "outputs": [
        {
          "internalType": "bytes32",
          "name": "",
          "type": "bytes32"
        }
      ],
      "stateMutability": "nonpayable",
      "type": "function"
    },
    {
      "inputs": [
        {
          "internalType": "address",
          "name": "page_addr",
          "type": "address"
        },
        {
          "internalType": "uint256",
          "name": "nstocks",
          "type": "uint256"
        },
        {
          "internalType": "uint256",
          "name": "price",
          "type": "uint256"
        }
      ],
      "name": "ask",
      "outputs": [
        {
          "internalType": "bytes32",
          "name": "",
          "type": "bytes32"
        }
      ],
      "stateMutability": "nonpayable",
      "type": "function"
    },
    {
      "inputs": [
        {
          "internalType": "address",
          "name": "page_addr",
          "type": "address"
        },
        {
          "internalType": "bytes32",
          "name": "receipt",
          "type": "bytes32"
        }
      ],
      "name": "cancelBid",
      "outputs": [
        {
          "internalType": "bool",
          "name": "",
          "type": "bool"
        }
      ],
      "stateMutability": "nonpayable",
      "type": "function"
    },
    {
      "inputs": [
        {
          "internalType": "address",
          "name": "page_addr",
          "type": "address"
        },
        {
          "internalType": "bytes32",
          "name": "receipt",
          "type": "bytes32"
        }
      ],
      "name": "cancelAsk",
      "outputs": [
        {
          "internalType": "bool",
          "name": "",
          "type": "bool"
        }
      ],
      "stateMutability": "nonpayable",
      "type": "function"
    },
    {
      "inputs": [
        {
          "internalType": "address",
          "name": "page_addr",
          "type": "address"
        },
        {
          "internalType": "address",
          "name": "buyer",
          "type": "address"
        },
        {
          "internalType": "address",
          "name": "seller",
          "type": "address"
        },
        {
          "internalType": "uint256",
          "name": "nstocks",
          "type": "uint256"
        },
        {
          "internalType": "uint256",
          "name": "amount",
          "type": "uint256"
        },
        {
          "internalType": "bytes32",
          "name": "ask_receipt",
          "type": "bytes32"
        },
        {
          "internalType": "bytes32",
          "name": "bid_receipt",
          "type": "bytes32"
        }
      ],
      "name": "makeDeal",
      "outputs": [],
      "stateMutability": "nonpayable",
      "type": "function"
    }
  ],
  "bytecode": "0x60806040523480156200001157600080fd5b50604051620046e1380380620046e1833981810160405281019062000037919062000137565b33600360006101000a81548173ffffffffffffffffffffffffffffffffffffffff021916908373ffffffffffffffffffffffffffffffffffffffff1602179055508160058190555080600460006101000a81548173ffffffffffffffffffffffffffffffffffffffff021916908373ffffffffffffffffffffffffffffffffffffffff16021790555080600660006101000a81548173ffffffffffffffffffffffffffffffffffffffff021916908373ffffffffffffffffffffffffffffffffffffffff1602179055505050620001ea565b6000815190506200011a81620001b6565b92915050565b6000815190506200013181620001d0565b92915050565b600080604083850312156200014b57600080fd5b60006200015b8582860162000120565b92505060206200016e8582860162000109565b9150509250929050565b600062000185826200018c565b9050919050565b600073ffffffffffffffffffffffffffffffffffffffff82169050919050565b6000819050919050565b620001c18162000178565b8114620001cd57600080fd5b50565b620001db81620001ac565b8114620001e757600080fd5b50565b6144e780620001fa6000396000f3fe60806040523480156200001157600080fd5b5060043610620001245760003560e01c806390edf06511620000b1578063ca9174ab116200007b578063ca9174ab146200035f578063cc1e2cb01462000395578063deaaa10a14620003b7578063e465c46514620003d7578063fc0c546a14620003f75762000124565b806390edf065146200029b578063b6b55f2514620002d1578063b96dd5101462000307578063c645f429146200033d5762000124565b80633e413bee11620000f35780633e413bee14620001d75780635745ae2814620001f95780635c3e9cc2146200022f57806377b2720714620002655762000124565b80630f41ba4b14620001295780630f574ba7146200015f5780631fcb4ee4146200017f5780632525f5c114620001a1575b600080fd5b620001476004803603810190620001419190620010d0565b62000419565b604051620001569190620015b1565b60405180910390f35b6200017d6004803603810190620001779190620011d8565b620005c2565b005b6200018962000641565b604051620001989190620016e9565b60405180910390f35b620001bf6004803603810190620001b991906200108f565b62000688565b604051620001ce919062001594565b60405180910390f35b620001e16200072d565b604051620001f09190620015ce565b60405180910390f35b62000217600480360381019062000211919062000fb6565b62000753565b604051620002269190620016e9565b60405180910390f35b6200024d6004803603810190620002479190620011d8565b6200076b565b6040516200025c919062001436565b60405180910390f35b6200028360048036038101906200027d91906200108f565b620007ab565b60405162000292919062001594565b60405180910390f35b620002b96004803603810190620002b39190620010d0565b62000850565b604051620002c89190620015b1565b60405180910390f35b620002ef6004803603810190620002e99190620011d8565b620008f5565b604051620002fe919062001594565b60405180910390f35b6200032560048036038101906200031f91906200117e565b62000ab5565b60405162000334919062001436565b60405180910390f35b6200034762000b88565b604051620003569190620016e9565b60405180910390f35b6200037d600480360381019062000377919062000fb6565b62000b8e565b6040516200038c9190620016e9565b60405180910390f35b6200039f62000ba6565b604051620003ae919062001436565b60405180910390f35b620003d56004803603810190620003cf919062000fe2565b62000bcc565b005b620003f56004803603810190620003ef919062000fb6565b62000d0a565b005b6200040162000e86565b60405162000410919062001436565b60405180910390f35b60008084905082846200042d9190620017e6565b600660009054906101000a900473ffffffffffffffffffffffffffffffffffffffff1673ffffffffffffffffffffffffffffffffffffffff1663dd62ed3e33886040518363ffffffff1660e01b81526004016200048c92919062001453565b60206040518083038186803b158015620004a557600080fd5b505afa158015620004ba573d6000803e3d6000fd5b505050506040513d601f19601f82011682018060405250810190620004e0919062001204565b1162000523576040517f08c379a00000000000000000000000000000000000000000000000000000000081526004016200051a90620016a5565b60405180910390fd5b8073ffffffffffffffffffffffffffffffffffffffff16630f41ba4b3386866040518463ffffffff1660e01b8152600401620005629392919062001557565b602060405180830381600087803b1580156200057d57600080fd5b505af115801562000592573d6000803e3d6000fd5b505050506040513d601f19601f82011682018060405250810190620005b8919062001152565b9150509392505050565b620005dc60055482620005d69190620017e6565b620008f5565b506201518081620005ee9190620017e6565b42620005fb919062001789565b600260003373ffffffffffffffffffffffffffffffffffffffff1673ffffffffffffffffffffffffffffffffffffffff1681526020019081526020016000208190555050565b6000600260003373ffffffffffffffffffffffffffffffffffffffff1673ffffffffffffffffffffffffffffffffffffffff16815260200190815260200160002054905090565b6000808390508073ffffffffffffffffffffffffffffffffffffffff16632525f5c133856040518363ffffffff1660e01b8152600401620006cb9291906200152a565b602060405180830381600087803b158015620006e657600080fd5b505af1158015620006fb573d6000803e3d6000fd5b505050506040513d601f19601f8201168201806040525081019062000721919062001126565b50600191505092915050565b600660009054906101000a900473ffffffffffffffffffffffffffffffffffffffff1681565b60026020528060005260406000206000915090505481565b600081815481106200077c57600080fd5b906000526020600020016000915054906101000a900473ffffffffffffffffffffffffffffffffffffffff1681565b6000808390508073ffffffffffffffffffffffffffffffffffffffff166377b2720733856040518363ffffffff1660e01b8152600401620007ee9291906200152a565b602060405180830381600087803b1580156200080957600080fd5b505af11580156200081e573d6000803e3d6000fd5b505050506040513d601f19601f8201168201806040525081019062000844919062001126565b50600191505092915050565b6000808490508073ffffffffffffffffffffffffffffffffffffffff166390edf0653386866040518463ffffffff1660e01b8152600401620008959392919062001557565b602060405180830381600087803b158015620008b057600080fd5b505af1158015620008c5573d6000803e3d6000fd5b505050506040513d601f19601f82011682018060405250810190620008eb919062001152565b9150509392505050565b600080600660009054906101000a900473ffffffffffffffffffffffffffffffffffffffff1673ffffffffffffffffffffffffffffffffffffffff1663dd62ed3e33306040518363ffffffff1660e01b81526004016200095792919062001453565b60206040518083038186803b1580156200097057600080fd5b505afa15801562000985573d6000803e3d6000fd5b505050506040513d601f19601f82011682018060405250810190620009ab919062001204565b905082811015620009f3576040517f08c379a0000000000000000000000000000000000000000000000000000000008152600401620009ea90620016c7565b60405180910390fd5b600660009054906101000a900473ffffffffffffffffffffffffffffffffffffffff1673ffffffffffffffffffffffffffffffffffffffff166323b872dd3330866040518463ffffffff1660e01b815260040162000a549392919062001480565b602060405180830381600087803b15801562000a6f57600080fd5b505af115801562000a84573d6000803e3d6000fd5b505050506040513d601f19601f8201168201806040525081019062000aaa919062001126565b506001915050919050565b600080838333600460009054906101000a900473ffffffffffffffffffffffffffffffffffffffff1660405162000aec9062000eac565b62000afb9493929190620015eb565b604051809103906000f08015801562000b18573d6000803e3d6000fd5b5090506000819080600181540180825580915050600190039060005260206000200160009091909190916101000a81548173ffffffffffffffffffffffffffffffffffffffff021916908373ffffffffffffffffffffffffffffffffffffffff1602179055508091505092915050565b60055481565b60016020528060005260406000206000915090505481565b600360009054906101000a900473ffffffffffffffffffffffffffffffffffffffff1681565b600360009054906101000a900473ffffffffffffffffffffffffffffffffffffffff1673ffffffffffffffffffffffffffffffffffffffff163373ffffffffffffffffffffffffffffffffffffffff161462000c5f576040517f08c379a000000000000000000000000000000000000000000000000000000000815260040162000c569062001661565b60405180910390fd5b60008790508073ffffffffffffffffffffffffffffffffffffffff1663ff2d27bd8888888888886040518763ffffffff1660e01b815260040162000ca996959493929190620014bd565b602060405180830381600087803b15801562000cc457600080fd5b505af115801562000cd9573d6000803e3d6000fd5b505050506040513d601f19601f8201168201806040525081019062000cff919062001126565b505050505050505050565b60003390506000600260008373ffffffffffffffffffffffffffffffffffffffff1673ffffffffffffffffffffffffffffffffffffffff16815260200190815260200160002054141562000d95576040517f08c379a000000000000000000000000000000000000000000000000000000000815260040162000d8c906200163f565b60405180910390fd5b6000600160008373ffffffffffffffffffffffffffffffffffffffff1673ffffffffffffffffffffffffffffffffffffffff168152602001908152602001600020541162000e1a576040517f08c379a000000000000000000000000000000000000000000000000000000000815260040162000e119062001683565b60405180910390fd5b60008290508073ffffffffffffffffffffffffffffffffffffffff1663a523b88a6040518163ffffffff1660e01b8152600401600060405180830381600087803b15801562000e6857600080fd5b505af115801562000e7d573d6000803e3d6000fd5b50505050505050565b600460009054906101000a900473ffffffffffffffffffffffffffffffffffffffff1681565b612ad280620019e083390190565b600062000ed162000ecb846200173a565b62001706565b90508281526020810184848401111562000eea57600080fd5b62000ef7848285620018c3565b509392505050565b60008135905062000f108162001977565b92915050565b60008151905062000f278162001991565b92915050565b60008135905062000f3e81620019ab565b92915050565b60008151905062000f5581620019ab565b92915050565b600082601f83011262000f6d57600080fd5b813562000f7f84826020860162000eba565b91505092915050565b60008135905062000f9981620019c5565b92915050565b60008151905062000fb081620019c5565b92915050565b60006020828403121562000fc957600080fd5b600062000fd98482850162000eff565b91505092915050565b600080600080600080600060e0888a03121562000ffe57600080fd5b60006200100e8a828b0162000eff565b9750506020620010218a828b0162000eff565b9650506040620010348a828b0162000eff565b9550506060620010478a828b0162000f88565b94505060806200105a8a828b0162000f88565b93505060a06200106d8a828b0162000f2d565b92505060c0620010808a828b0162000f2d565b91505092959891949750929550565b60008060408385031215620010a357600080fd5b6000620010b38582860162000eff565b9250506020620010c68582860162000f2d565b9150509250929050565b600080600060608486031215620010e657600080fd5b6000620010f68682870162000eff565b9350506020620011098682870162000f88565b92505060406200111c8682870162000f88565b9150509250925092565b6000602082840312156200113957600080fd5b6000620011498482850162000f16565b91505092915050565b6000602082840312156200116557600080fd5b6000620011758482850162000f44565b91505092915050565b600080604083850312156200119257600080fd5b600083013567ffffffffffffffff811115620011ad57600080fd5b620011bb8582860162000f5b565b9250506020620011ce8582860162000f88565b9150509250929050565b600060208284031215620011eb57600080fd5b6000620011fb8482850162000f88565b91505092915050565b6000602082840312156200121757600080fd5b6000620012278482850162000f9f565b91505092915050565b6200123b8162001847565b82525050565b6200124c816200185b565b82525050565b6200125d8162001867565b82525050565b6200126e816200189b565b82525050565b600062001281826200176d565b6200128d818562001778565b93506200129f818560208601620018d2565b620012aa8162001966565b840191505092915050565b6000620012c4601d8362001778565b91507f546865207573657220686173206e6f74207375627363726962657265640000006000830152602082019050919050565b60006200130660268362001778565b91507f6f6e6c79206f7267616e697a6174696f6e2063616e20636f6e6669726d20746860008301527f65206465616c00000000000000000000000000000000000000000000000000006020830152604082019050919050565b60006200136e601e8362001778565b91507f546865207573657220686173206e6f207265616374696f6e73206c65667400006000830152602082019050919050565b6000620013b060148362001778565b91507f4e6f7420656e6f75676820616c6c6f77616e63650000000000000000000000006000830152602082019050919050565b6000620013f260198362001778565b91507f416c6c6f77616e6365206973206e6f74206164657175657465000000000000006000830152602082019050919050565b620014308162001891565b82525050565b60006020820190506200144d600083018462001230565b92915050565b60006040820190506200146a600083018562001230565b62001479602083018462001230565b9392505050565b600060608201905062001497600083018662001230565b620014a6602083018562001230565b620014b5604083018462001425565b949350505050565b600060c082019050620014d4600083018962001230565b620014e3602083018862001230565b620014f2604083018762001425565b62001501606083018662001425565b62001510608083018562001252565b6200151f60a083018462001252565b979650505050505050565b600060408201905062001541600083018562001230565b62001550602083018462001252565b9392505050565b60006060820190506200156e600083018662001230565b6200157d602083018562001425565b6200158c604083018462001425565b949350505050565b6000602082019050620015ab600083018462001241565b92915050565b6000602082019050620015c8600083018462001252565b92915050565b6000602082019050620015e5600083018462001263565b92915050565b6000608082019050818103600083015262001607818762001274565b905062001618602083018662001425565b62001627604083018562001230565b62001636606083018462001230565b95945050505050565b600060208201905081810360008301526200165a81620012b5565b9050919050565b600060208201905081810360008301526200167c81620012f7565b9050919050565b600060208201905081810360008301526200169e816200135f565b9050919050565b60006020820190508181036000830152620016c081620013a1565b9050919050565b60006020820190508181036000830152620016e281620013e3565b9050919050565b600060208201905062001700600083018462001425565b92915050565b6000604051905081810181811067ffffffffffffffff8211171562001730576200172f62001937565b5b8060405250919050565b600067ffffffffffffffff82111562001758576200175762001937565b5b601f19601f8301169050602081019050919050565b600081519050919050565b600082825260208201905092915050565b6000620017968262001891565b9150620017a38362001891565b9250827fffffffffffffffffffffffffffffffffffffffffffffffffffffffffffffffff03821115620017db57620017da62001908565b5b828201905092915050565b6000620017f38262001891565b9150620018008362001891565b9250817fffffffffffffffffffffffffffffffffffffffffffffffffffffffffffffffff04831182151516156200183c576200183b62001908565b5b828202905092915050565b6000620018548262001871565b9050919050565b60008115159050919050565b6000819050919050565b600073ffffffffffffffffffffffffffffffffffffffff82169050919050565b6000819050919050565b6000620018a882620018af565b9050919050565b6000620018bc8262001871565b9050919050565b82818337600083830152505050565b60005b83811015620018f2578082015181840152602081019050620018d5565b8381111562001902576000848401525b50505050565b7f4e487b7100000000000000000000000000000000000000000000000000000000600052601160045260246000fd5b7f4e487b7100000000000000000000000000000000000000000000000000000000600052604160045260246000fd5b6000601f19601f8301169050919050565b620019828162001847565b81146200198e57600080fd5b50565b6200199c816200185b565b8114620019a857600080fd5b50565b620019b68162001867565b8114620019c257600080fd5b50565b620019d08162001891565b8114620019dc57600080fd5b5056fe60806040523480156200001157600080fd5b5060405162002ad238038062002ad2833981810160405281019062000037919062000277565b83600490805190602001906200004f92919062000127565b5033600360006101000a81548173ffffffffffffffffffffffffffffffffffffffff021916908373ffffffffffffffffffffffffffffffffffffffff160217905550826000808473ffffffffffffffffffffffffffffffffffffffff1673ffffffffffffffffffffffffffffffffffffffff16815260200190815260200160002081905550600060058190555080600660006101000a81548173ffffffffffffffffffffffffffffffffffffffff021916908373ffffffffffffffffffffffffffffffffffffffff160217905550505050506200049f565b8280546200013590620003d7565b90600052602060002090601f016020900481019282620001595760008555620001a5565b82601f106200017457805160ff1916838001178555620001a5565b82800160010185558215620001a5579182015b82811115620001a457825182559160200191906001019062000187565b5b509050620001b49190620001b8565b5090565b5b80821115620001d3576000816000905550600101620001b9565b5090565b6000620001ee620001e88462000330565b620002fc565b9050828152602081018484840111156200020757600080fd5b62000214848285620003a1565b509392505050565b6000815190506200022d816200046b565b92915050565b600082601f8301126200024557600080fd5b815162000257848260208601620001d7565b91505092915050565b600081519050620002718162000485565b92915050565b600080600080608085870312156200028e57600080fd5b600085015167ffffffffffffffff811115620002a957600080fd5b620002b78782880162000233565b9450506020620002ca8782880162000260565b9350506040620002dd878288016200021c565b9250506060620002f0878288016200021c565b91505092959194509250565b6000604051905081810181811067ffffffffffffffff821117156200032657620003256200043c565b5b8060405250919050565b600067ffffffffffffffff8211156200034e576200034d6200043c565b5b601f19601f8301169050602081019050919050565b6000620003708262000377565b9050919050565b600073ffffffffffffffffffffffffffffffffffffffff82169050919050565b6000819050919050565b60005b83811015620003c1578082015181840152602081019050620003a4565b83811115620003d1576000848401525b50505050565b60006002820490506001821680620003f057607f821691505b602082108114156200040757620004066200040d565b5b50919050565b7f4e487b7100000000000000000000000000000000000000000000000000000000600052602260045260246000fd5b7f4e487b7100000000000000000000000000000000000000000000000000000000600052604160045260246000fd5b620004768162000363565b81146200048257600080fd5b50565b620004908162000397565b81146200049c57600080fd5b50565b61262380620004af6000396000f3fe6080604052600436106100c25760003560e01c806390edf0651161007f578063cc1e2cb011610059578063cc1e2cb01461028d578063d1dc9bd8146102b8578063ef6cf04d146102e3578063ff2d27bd14610320576100c2565b806390edf065146102045780639c3f1e9014610234578063a523b88a14610276576100c2565b806306fdde03146100c75780630f41ba4b146100f25780631877bb5c146101225780632525f5c11461015f5780633e413bee1461019c57806377b27207146101c7575b600080fd5b3480156100d357600080fd5b506100dc61035d565b6040516100e991906120cf565b60405180910390f35b61010c600480360381019061010791906118a1565b6103eb565b6040516101199190612099565b60405180910390f35b34801561012e57600080fd5b50610149600480360381019061014491906117b3565b6105f6565b60405161015691906122f1565b60405180910390f35b34801561016b57600080fd5b5061018660048036038101906101819190611865565b61060e565b604051610193919061207e565b60405180910390f35b3480156101a857600080fd5b506101b161092e565b6040516101be91906120b4565b60405180910390f35b3480156101d357600080fd5b506101ee60048036038101906101e99190611865565b610954565b6040516101fb919061207e565b60405180910390f35b61021e600480360381019061021991906118a1565b610c7b565b60405161022b9190612099565b60405180910390f35b34801561024057600080fd5b5061025b60048036038101906102569190611919565b610e86565b60405161026d96959493929190611ff4565b60405180910390f35b34801561028257600080fd5b5061028b610efc565b005b34801561029957600080fd5b506102a2610fa8565b6040516102af9190611f79565b60405180910390f35b3480156102c457600080fd5b506102cd610fce565b6040516102da91906122f1565b60405180910390f35b3480156102ef57600080fd5b5061030a60048036038101906103059190611919565b610fd4565b604051610317919061207e565b60405180910390f35b34801561032c57600080fd5b50610347600480360381019061034291906117dc565b610ff4565b604051610354919061207e565b60405180910390f35b6004805461036a906124b5565b80601f0160208091040260200160405190810160405280929190818152602001828054610396906124b5565b80156103e35780601f106103b8576101008083540402835291602001916103e3565b820191906000526020600020905b8154815290600101906020018083116103c657829003601f168201915b505050505081565b6000600360009054906101000a900473ffffffffffffffffffffffffffffffffffffffff1673ffffffffffffffffffffffffffffffffffffffff163373ffffffffffffffffffffffffffffffffffffffff161461047d576040517f08c379a0000000000000000000000000000000000000000000000000000000008152600401610474906121b1565b60405180910390fd5b60008442604051602001610492929190611f4d565b60405160208183030381529060405280519060200120905060006040518060c001604052808773ffffffffffffffffffffffffffffffffffffffff16815260200160011515815260200186866104e8919061237e565b815260200186815260200183815260200160011515815250905060016002600084815260200190815260200160002060006101000a81548160ff021916908315150217905550806001600084815260200190815260200160002060008201518160000160006101000a81548173ffffffffffffffffffffffffffffffffffffffff021916908373ffffffffffffffffffffffffffffffffffffffff16021790555060208201518160000160146101000a81548160ff02191690831515021790555060408201518160010155606082015181600201556080820151816003015560a08201518160040160006101000a81548160ff02191690831515021790555090505081925050509392505050565b60006020528060005260406000206000915090505481565b6000600360009054906101000a900473ffffffffffffffffffffffffffffffffffffffff1673ffffffffffffffffffffffffffffffffffffffff163373ffffffffffffffffffffffffffffffffffffffff16146106a0576040517f08c379a0000000000000000000000000000000000000000000000000000000008152600401610697906121b1565b60405180910390fd5b600115156002600084815260200190815260200160002060009054906101000a900460ff16151514610707576040517f08c379a00000000000000000000000000000000000000000000000000000000081526004016106fe906121f1565b60405180910390fd5b8160016000848152602001908152602001600020600301541461075f576040517f08c379a000000000000000000000000000000000000000000000000000000000815260040161075690612131565b60405180910390fd5b6001600083815260200190815260200160002060040160009054906101000a900460ff166107c2576040517f08c379a00000000000000000000000000000000000000000000000000000000081526004016107b990612191565b60405180910390fd5b8273ffffffffffffffffffffffffffffffffffffffff166001600084815260200190815260200160002060000160009054906101000a900473ffffffffffffffffffffffffffffffffffffffff1673ffffffffffffffffffffffffffffffffffffffff1614610866576040517f08c379a000000000000000000000000000000000000000000000000000000000815260040161085d906122d1565b60405180910390fd5b6001600083815260200190815260200160002060000160149054906101000a900460ff166108c9576040517f08c379a00000000000000000000000000000000000000000000000000000000081526004016108c090612171565b60405180910390fd5b60006002600084815260200190815260200160002060006101000a81548160ff02191690831515021790555060006001600084815260200190815260200160002060040160006101000a81548160ff0219169083151502179055506001905092915050565b600660009054906101000a900473ffffffffffffffffffffffffffffffffffffffff1681565b6000600360009054906101000a900473ffffffffffffffffffffffffffffffffffffffff1673ffffffffffffffffffffffffffffffffffffffff163373ffffffffffffffffffffffffffffffffffffffff16146109e6576040517f08c379a00000000000000000000000000000000000000000000000000000000081526004016109dd906121b1565b60405180910390fd5b600115156002600084815260200190815260200160002060009054906101000a900460ff16151514610a4d576040517f08c379a0000000000000000000000000000000000000000000000000000000008152600401610a44906121f1565b60405180910390fd5b81600160008481526020019081526020016000206003015414610aa5576040517f08c379a0000000000000000000000000000000000000000000000000000000008152600401610a9c90612131565b60405180910390fd5b6001600083815260200190815260200160002060040160009054906101000a900460ff16610b08576040517f08c379a0000000000000000000000000000000000000000000000000000000008152600401610aff90612191565b60405180910390fd5b8273ffffffffffffffffffffffffffffffffffffffff166001600084815260200190815260200160002060000160009054906101000a900473ffffffffffffffffffffffffffffffffffffffff1673ffffffffffffffffffffffffffffffffffffffff1614610bac576040517f08c379a0000000000000000000000000000000000000000000000000000000008152600401610ba390612271565b60405180910390fd5b600015156001600084815260200190815260200160002060000160149054906101000a900460ff16151514610c16576040517f08c379a0000000000000000000000000000000000000000000000000000000008152600401610c0d906120f1565b60405180910390fd5b60006002600084815260200190815260200160002060006101000a81548160ff02191690831515021790555060006001600084815260200190815260200160002060040160006101000a81548160ff0219169083151502179055506001905092915050565b6000600360009054906101000a900473ffffffffffffffffffffffffffffffffffffffff1673ffffffffffffffffffffffffffffffffffffffff163373ffffffffffffffffffffffffffffffffffffffff1614610d0d576040517f08c379a0000000000000000000000000000000000000000000000000000000008152600401610d04906121b1565b60405180910390fd5b60008442604051602001610d22929190611f4d565b60405160208183030381529060405280519060200120905060006040518060c001604052808773ffffffffffffffffffffffffffffffffffffffff1681526020016000151581526020018686610d78919061237e565b815260200186815260200183815260200160011515815250905060016002600084815260200190815260200160002060006101000a81548160ff021916908315150217905550806001600084815260200190815260200160002060008201518160000160006101000a81548173ffffffffffffffffffffffffffffffffffffffff021916908373ffffffffffffffffffffffffffffffffffffffff16021790555060208201518160000160146101000a81548160ff02191690831515021790555060408201518160010155606082015181600201556080820151816003015560a08201518160040160006101000a81548160ff02191690831515021790555090505081925050509392505050565b60016020528060005260406000206000915090508060000160009054906101000a900473ffffffffffffffffffffffffffffffffffffffff16908060000160149054906101000a900460ff16908060010154908060020154908060030154908060040160009054906101000a900460ff16905086565b600360009054906101000a900473ffffffffffffffffffffffffffffffffffffffff1673ffffffffffffffffffffffffffffffffffffffff163373ffffffffffffffffffffffffffffffffffffffff1614610f8c576040517f08c379a0000000000000000000000000000000000000000000000000000000008152600401610f83906121d1565b60405180910390fd5b600160056000828254610f9f9190612328565b92505081905550565b600360009054906101000a900473ffffffffffffffffffffffffffffffffffffffff1681565b60055481565b60026020528060005260406000206000915054906101000a900460ff1681565b6000600360009054906101000a900473ffffffffffffffffffffffffffffffffffffffff1673ffffffffffffffffffffffffffffffffffffffff163373ffffffffffffffffffffffffffffffffffffffff1614611086576040517f08c379a000000000000000000000000000000000000000000000000000000000815260040161107d90612151565b60405180910390fd5b6002600084815260200190815260200160002060009054906101000a900460ff1680156110d057506002600083815260200190815260200160002060009054906101000a900460ff165b61110f576040517f08c379a000000000000000000000000000000000000000000000000000000000815260040161110690612211565b60405180910390fd5b6000600160008581526020019081526020016000206040518060c00160405290816000820160009054906101000a900473ffffffffffffffffffffffffffffffffffffffff1673ffffffffffffffffffffffffffffffffffffffff1673ffffffffffffffffffffffffffffffffffffffff1681526020016000820160149054906101000a900460ff161515151581526020016001820154815260200160028201548152602001600382015481526020016004820160009054906101000a900460ff16151515158152505090506000600160008581526020019081526020016000206040518060c00160405290816000820160009054906101000a900473ffffffffffffffffffffffffffffffffffffffff1673ffffffffffffffffffffffffffffffffffffffff1673ffffffffffffffffffffffffffffffffffffffff1681526020016000820160149054906101000a900460ff161515151581526020016001820154815260200160028201548152602001600382015481526020016004820160009054906101000a900460ff161515151581525050905081604001518610156112ee576040517f08c379a00000000000000000000000000000000000000000000000000000000081526004016112e590612251565b60405180910390fd5b8060400151861115611335576040517f08c379a000000000000000000000000000000000000000000000000000000000815260040161132c90612291565b60405180910390fd5b866000808a73ffffffffffffffffffffffffffffffffffffffff1673ffffffffffffffffffffffffffffffffffffffff1681526020019081526020016000205410156113b6576040517f08c379a00000000000000000000000000000000000000000000000000000000081526004016113ad90612111565b60405180910390fd5b85600660009054906101000a900473ffffffffffffffffffffffffffffffffffffffff1673ffffffffffffffffffffffffffffffffffffffff1663dd62ed3e8b306040518363ffffffff1660e01b8152600401611414929190611f94565b60206040518083038186803b15801561142c57600080fd5b505afa158015611440573d6000803e3d6000fd5b505050506040513d601f19601f820116820180604052508101906114649190611942565b10156114a5576040517f08c379a000000000000000000000000000000000000000000000000000000000815260040161149c90612231565b60405180910390fd5b868160600151111580156114bd575086826060015111155b6114fc576040517f08c379a00000000000000000000000000000000000000000000000000000000081526004016114f3906122b1565b60405180910390fd5b600660009054906101000a900473ffffffffffffffffffffffffffffffffffffffff1673ffffffffffffffffffffffffffffffffffffffff166323b872dd8a30896040518463ffffffff1660e01b815260040161155b93929190611fbd565b602060405180830381600087803b15801561157557600080fd5b505af1158015611589573d6000803e3d6000fd5b505050506040513d601f19601f820116820180604052508101906115ad91906118f0565b50600660009054906101000a900473ffffffffffffffffffffffffffffffffffffffff1673ffffffffffffffffffffffffffffffffffffffff1663a9059cbb89886040518363ffffffff1660e01b815260040161160b929190612055565b602060405180830381600087803b15801561162557600080fd5b505af1158015611639573d6000803e3d6000fd5b505050506040513d601f19601f8201168201806040525081019061165d91906118f0565b50868160600181815161167091906123d8565b91508181525050868260600181815161168991906123d8565b91508181525050866000808a73ffffffffffffffffffffffffffffffffffffffff1673ffffffffffffffffffffffffffffffffffffffff16815260200190815260200160002060008282546116de91906123d8565b92505081905550866000808b73ffffffffffffffffffffffffffffffffffffffff1673ffffffffffffffffffffffffffffffffffffffff16815260200190815260200160002060008282546117339190612328565b925050819055506001925050509695505050505050565b60008135905061175981612591565b92915050565b60008151905061176e816125a8565b92915050565b600081359050611783816125bf565b92915050565b600081359050611798816125d6565b92915050565b6000815190506117ad816125d6565b92915050565b6000602082840312156117c557600080fd5b60006117d38482850161174a565b91505092915050565b60008060008060008060c087890312156117f557600080fd5b600061180389828a0161174a565b965050602061181489828a0161174a565b955050604061182589828a01611789565b945050606061183689828a01611789565b935050608061184789828a01611774565b92505060a061185889828a01611774565b9150509295509295509295565b6000806040838503121561187857600080fd5b60006118868582860161174a565b925050602061189785828601611774565b9150509250929050565b6000806000606084860312156118b657600080fd5b60006118c48682870161174a565b93505060206118d586828701611789565b92505060406118e686828701611789565b9150509250925092565b60006020828403121561190257600080fd5b60006119108482850161175f565b91505092915050565b60006020828403121561192b57600080fd5b600061193984828501611774565b91505092915050565b60006020828403121561195457600080fd5b60006119628482850161179e565b91505092915050565b6119748161240c565b82525050565b61198b6119868261240c565b6124e7565b82525050565b61199a8161241e565b82525050565b6119a98161242a565b82525050565b6119b88161245e565b82525050565b60006119c98261230c565b6119d38185612317565b93506119e3818560208601612482565b6119ec81612573565b840191505092915050565b6000611a04601a83612317565b91507f546865206f726465722069732061206275796572206f726465720000000000006000830152602082019050919050565b6000611a44602483612317565b91507f5468652073656c6c657220646f65736e2774206861766520656e6f756768207360008301527f68617265000000000000000000000000000000000000000000000000000000006020830152604082019050919050565b6000611aaa601f83612317565b91507f546865206f726465722068617320646966666572656e742072656365697074006000830152602082019050919050565b6000611aea602683612317565b91507f6f6e6c79206f7267616e697a6174696f6e2063616e20636f6e6669726d20746860008301527f65206465616c00000000000000000000000000000000000000000000000000006020830152604082019050919050565b6000611b50601b83612317565b91507f546865206f7264657220697320612073656c6c6572206f7264657200000000006000830152602082019050919050565b6000611b90602c83612317565b91507f546865206f72646572206973206e6f742076616c69642e20497320616c72656160008301527f64792063616e63656c6c656400000000000000000000000000000000000000006020830152604082019050919050565b6000611bf6602f83612317565b91507f6f6e6c7920746865206d61726b657420636f6e74726163742063616e2063616c60008301527f6c20746869732066756e6374696f6e00000000000000000000000000000000006020830152604082019050919050565b6000611c5c602c83612317565b91507f6f6e6c79206f7267616e697a6174696f6e2063616e2063616c6c20746865206c60008301527f696b652066756e6374696f6e00000000000000000000000000000000000000006020830152604082019050919050565b6000611cc2601783612317565b91507f546865206f7264657220646f65736e27742065786973740000000000000000006000830152602082019050919050565b6000611d02601383612317565b91507f526563656970747320697320696e76616c6964000000000000000000000000006000830152602082019050919050565b6000611d42602783612317565b91507f54686520627579657220646f65736e2774206861766520656e6f75676820616c60008301527f6c6f77616e6365000000000000000000000000000000000000000000000000006020830152604082019050919050565b6000611da8602483612317565b91507f546865207072696365206973206c657373207468616e207468652061736b207060008301527f72696365000000000000000000000000000000000000000000000000000000006020830152604082019050919050565b6000611e0e601883612317565b91507f53656c6c65722061646472657373206d69736d736174636800000000000000006000830152602082019050919050565b6000611e4e602883612317565b91507f5468652070726963652069732067726561746572207468616e2074686520626960008301527f6420616d6f756e740000000000000000000000000000000000000000000000006020830152604082019050919050565b6000611eb4601c83612317565b91507f4f726465722073746f636b207175616e74697479206973206c657373000000006000830152602082019050919050565b6000611ef4601783612317565b91507f42757965722061646472657373206d69736d73617463680000000000000000006000830152602082019050919050565b611f3081612454565b82525050565b611f47611f4282612454565b61250b565b82525050565b6000611f59828561197a565b601482019150611f698284611f36565b6020820191508190509392505050565b6000602082019050611f8e600083018461196b565b92915050565b6000604082019050611fa9600083018561196b565b611fb6602083018461196b565b9392505050565b6000606082019050611fd2600083018661196b565b611fdf602083018561196b565b611fec6040830184611f27565b949350505050565b600060c082019050612009600083018961196b565b6120166020830188611991565b6120236040830187611f27565b6120306060830186611f27565b61203d60808301856119a0565b61204a60a0830184611991565b979650505050505050565b600060408201905061206a600083018561196b565b6120776020830184611f27565b9392505050565b60006020820190506120936000830184611991565b92915050565b60006020820190506120ae60008301846119a0565b92915050565b60006020820190506120c960008301846119af565b92915050565b600060208201905081810360008301526120e981846119be565b905092915050565b6000602082019050818103600083015261210a816119f7565b9050919050565b6000602082019050818103600083015261212a81611a37565b9050919050565b6000602082019050818103600083015261214a81611a9d565b9050919050565b6000602082019050818103600083015261216a81611add565b9050919050565b6000602082019050818103600083015261218a81611b43565b9050919050565b600060208201905081810360008301526121aa81611b83565b9050919050565b600060208201905081810360008301526121ca81611be9565b9050919050565b600060208201905081810360008301526121ea81611c4f565b9050919050565b6000602082019050818103600083015261220a81611cb5565b9050919050565b6000602082019050818103600083015261222a81611cf5565b9050919050565b6000602082019050818103600083015261224a81611d35565b9050919050565b6000602082019050818103600083015261226a81611d9b565b9050919050565b6000602082019050818103600083015261228a81611e01565b9050919050565b600060208201905081810360008301526122aa81611e41565b9050919050565b600060208201905081810360008301526122ca81611ea7565b9050919050565b600060208201905081810360008301526122ea81611ee7565b9050919050565b60006020820190506123066000830184611f27565b92915050565b600081519050919050565b600082825260208201905092915050565b600061233382612454565b915061233e83612454565b9250827fffffffffffffffffffffffffffffffffffffffffffffffffffffffffffffffff0382111561237357612372612515565b5b828201905092915050565b600061238982612454565b915061239483612454565b9250817fffffffffffffffffffffffffffffffffffffffffffffffffffffffffffffffff04831182151516156123cd576123cc612515565b5b828202905092915050565b60006123e382612454565b91506123ee83612454565b92508282101561240157612400612515565b5b828203905092915050565b600061241782612434565b9050919050565b60008115159050919050565b6000819050919050565b600073ffffffffffffffffffffffffffffffffffffffff82169050919050565b6000819050919050565b600061246982612470565b9050919050565b600061247b82612434565b9050919050565b60005b838110156124a0578082015181840152602081019050612485565b838111156124af576000848401525b50505050565b600060028204905060018216806124cd57607f821691505b602082108114156124e1576124e0612544565b5b50919050565b60006124f2826124f9565b9050919050565b600061250482612584565b9050919050565b6000819050919050565b7f4e487b7100000000000000000000000000000000000000000000000000000000600052601160045260246000fd5b7f4e487b7100000000000000000000000000000000000000000000000000000000600052602260045260246000fd5b6000601f19601f8301169050919050565b60008160601b9050919050565b61259a8161240c565b81146125a557600080fd5b50565b6125b18161241e565b81146125bc57600080fd5b50565b6125c88161242a565b81146125d357600080fd5b50565b6125df81612454565b81146125ea57600080fd5b5056fea2646970667358221220ee4be6d551a8ec42fc276705c09a0c4b0df4dafdfa5f94c14238e8b865a83d8964736f6c63430008000033a264697066735822122008e7475e05817a9b4cb56c06a823dc19da9812402b82d79116d873ecd96d4d1064736f6c63430008000033",
  "immutableReferences": {},
  "source": "// SPDX-License-Identifier: MIT\r\npragma solidity >=0.4.22 <0.9.0;\r\nimport \"@openzeppelin/contracts/token/ERC20/ERC20.sol\";\r\n\r\n\r\n//minimize the number of contract calls for single transaction\r\n//maximize the number of transaction\r\ncontract Page{\r\n\r\n    struct Order{\r\n        address customer;\r\n        bool purchase;\r\n        uint amount;\r\n        uint quantity;\r\n        bytes32 receipt;\r\n        bool valid;\r\n    }  \r\n\r\n    mapping(address => uint) public share;\r\n    mapping(bytes32 => Order)  public orders;\r\n    mapping(bytes32 => bool)  public receipts;\r\n    address  public org;\r\n    string  public name;\r\n    uint  public likes;\r\n    ERC20  public usdc;\r\n\r\n    constructor(string memory _name, uint nstocks, address owner, address _token) {\r\n        name=_name;\r\n        org=msg.sender;\r\n        share[owner]=nstocks;\r\n        likes=0;\r\n        usdc = ERC20(_token);\r\n    }\r\n\r\n    function like() public {\r\n        require(msg.sender==org, \"only organization can call the like function\");\r\n        likes += 1;\r\n    }\r\n    \r\n\r\n    function makeDeal(address buyer, address seller, uint nstocks, uint amount, bytes32 ask_receipt, bytes32 bid_receipt) public returns(bool) {\r\n        require(msg.sender==org, \"only organization can confirm the deal\");\r\n        require(receipts[ask_receipt] && receipts[bid_receipt], \"Receipts is invalid\");\r\n        Order memory ask_order=orders[ask_receipt];\r\n        Order memory bid_order = orders[bid_receipt];\r\n        require(amount >= ask_order.amount, \"The price is less than the ask price\");\r\n        require(amount <= bid_order.amount, \"The price is greater than the bid amount\");\r\n        require(share[seller] >= nstocks, \"The seller doesn't have enough share\");\r\n        require(usdc.allowance(buyer, address(this)) >= amount, \"The buyer doesn't have enough allowance\");\r\n\r\n        require(bid_order.quantity <= nstocks && ask_order.quantity <= nstocks, \"Order stock quantity is less\");\r\n\r\n        usdc.transferFrom(buyer, address(this), amount);\r\n        usdc.transfer(seller, amount);\r\n        bid_order.quantity -= nstocks;\r\n        ask_order.quantity -= nstocks;\r\n\r\n        share[seller] -= nstocks;\r\n        share[buyer] += nstocks;\r\n\r\n\r\n        return true;\r\n    }\r\n\r\n    function bid(address buyer, uint nstocks, uint price) payable public returns(bytes32){\r\n        require(msg.sender==org, \"only the market contract can call this function\");\r\n        bytes32 receipt = keccak256(abi.encodePacked(buyer, block.timestamp));\r\n        Order memory order = Order(buyer, true, price*nstocks, nstocks, receipt, true);\r\n        receipts[receipt]=true;\r\n        orders[receipt]=order;\r\n        return receipt;\r\n    }\r\n\r\n    function ask(address seller, uint nstocks, uint price) public payable returns(bytes32){\r\n        require(msg.sender==org, \"only the market contract can call this function\");\r\n        bytes32 receipt = keccak256(abi.encodePacked(seller, block.timestamp));\r\n        Order memory order = Order(seller, false, price*nstocks, nstocks, receipt, true);\r\n        receipts[receipt]=true;\r\n        orders[receipt]=order;\r\n        return receipt;\r\n    }\r\n\r\n    function cancelBid(address buyer, bytes32 receipt_addr) public returns(bool){\r\n        require(msg.sender==org, \"only the market contract can call this function\");\r\n        require(receipts[receipt_addr]==true, \"The order doesn't exist\");\r\n        require(orders[receipt_addr].receipt == receipt_addr, \"The order has different receipt\");\r\n        require(orders[receipt_addr].valid, \"The order is not valid. Is already cancelled\");\r\n        require(orders[receipt_addr].customer==buyer, \"Buyer address mismsatch\");\r\n        require(orders[receipt_addr].purchase, \"The order is a seller order\");\r\n        receipts[receipt_addr]=false;\r\n        orders[receipt_addr].valid=false;\r\n        return true;\r\n    }\r\n\r\n    function cancelAsk(address seller, bytes32 receipt_addr) public returns(bool){\r\n        require(msg.sender==org, \"only the market contract can call this function\");\r\n        require(receipts[receipt_addr]==true, \"The order doesn't exist\");\r\n        require(orders[receipt_addr].receipt == receipt_addr, \"The order has different receipt\");\r\n        require(orders[receipt_addr].valid, \"The order is not valid. Is already cancelled\");\r\n        require(orders[receipt_addr].customer==seller, \"Seller address mismsatch\");\r\n        require(orders[receipt_addr].purchase==false, \"The order is a buyer order\");\r\n        receipts[receipt_addr]=false;\r\n        orders[receipt_addr].valid=false;\r\n        return true;\r\n    }\r\n\r\n    \r\n}\r\n\r\ncontract Market{\r\n\r\n    address[] public pages;\r\n    mapping(address => uint) public rem_reactions;\r\n    mapping(address => uint) public subscribers;\r\n    address public org;\r\n    address public token;\r\n    uint public subscription_fee;\r\n    ERC20 public usdc;\r\n\r\n    constructor(uint _fee, address _token){\r\n        org = msg.sender;\r\n        subscription_fee = _fee;\r\n        token=_token;\r\n        usdc=ERC20(_token);\r\n    }\r\n\r\n\r\n    function deposit(uint256 amount) public returns (bool) {\r\n        uint256 allowance = usdc.allowance(msg.sender, address(this));\r\n        require(allowance >= amount, \"Allowance is not adequete\");\r\n        usdc.transferFrom(msg.sender, address(this), amount);\r\n        return true;\r\n    }\r\n\r\n    function ipo(string memory _name, uint nstocks) public returns(address) {\r\n        Page page = new Page(_name, nstocks, msg.sender, token);\r\n        pages.push(address(page));\r\n        return address(page);\r\n    }\r\n\r\n    function subscribe(uint validity) public {\r\n        deposit(validity*subscription_fee);\r\n        subscribers[msg.sender]=block.timestamp + validity * 1 days;\r\n    }\r\n\r\n    function isSubscriber() public returns(uint){\r\n        return subscribers[msg.sender];\r\n    }\r\n\r\n    function like(address page_addr) public {\r\n        address user = msg.sender;\r\n        require(subscribers[user]!=0, \"The user has not subscribered\");\r\n        require(rem_reactions[user] > 0, \"The user has no reactions left\");\r\n        Page page = Page(page_addr);\r\n        page.like();\r\n    }\r\n\r\n    function bid(address page_addr, uint nstocks, uint price) public returns(bytes32) {\r\n        Page page = Page(page_addr);\r\n        require(usdc.allowance(msg.sender, page_addr) > nstocks*price, \"Not enough allowance\");\r\n        return page.bid(msg.sender, nstocks, price);\r\n    }\r\n\r\n    function ask(address page_addr, uint nstocks, uint price) public returns(bytes32){\r\n        Page page = Page(page_addr);\r\n        return page.ask(msg.sender, nstocks, price);\r\n    }\r\n\r\n    function cancelBid(address page_addr, bytes32 receipt) public returns (bool){\r\n        Page page = Page(page_addr);\r\n        page.cancelBid(msg.sender, receipt);\r\n        return true;\r\n    }\r\n\r\n    function cancelAsk(address page_addr, bytes32 receipt) public returns (bool){\r\n        Page page = Page(page_addr);\r\n        page.cancelAsk(msg.sender, receipt);\r\n        return true;\r\n    }\r\n\r\n    function makeDeal(address page_addr, address buyer, address seller, uint nstocks, uint amount, bytes32 ask_receipt, bytes32 bid_receipt) public {\r\n        require(msg.sender==org, \"only organization can confirm the deal\");\r\n        Page page = Page(page_addr);\r\n        page.makeDeal(buyer, seller, nstocks, amount, ask_receipt, bid_receipt);\r\n    }\r\n\r\n}",
  "sourcePath": "D:/projects/hackthemountains/Xcalate/SmartContracts/contracts/Page.sol",
  "compiler": {
    "name": "solc",
    "version": "0.8.0+commit.c7dfd78e.Emscripten.clang"
  },
  "schemaVersion": "3.4.1",
  "updatedAt": "2021-06-27T06:02:23.832Z",
  "networkType": "ethereum",
  "devdoc": {
    "kind": "dev",
    "methods": {},
    "version": 1
  },
  "userdoc": {
    "kind": "user",
    "methods": {},
    "version": 1
  }
}