{
  "contractName": "Page",
  "abi": [
    {
      "inputs": [
        {
          "internalType": "string",
          "name": "_name",
          "type": "string"
        },
        {
          "internalType": "uint256",
          "name": "nstocks",
          "type": "uint256"
        },
        {
          "internalType": "address",
          "name": "owner",
          "type": "address"
        },
        {
          "internalType": "address",
          "name": "_token",
          "type": "address"
        }
      ],
      "stateMutability": "nonpayable",
      "type": "constructor"
    },
    {
      "inputs": [],
      "name": "likes",
      "outputs": [
        {
          "internalType": "uint256",
          "name": "",
          "type": "uint256"
        }
      ],
      "stateMutability": "view",
      "type": "function",
      "constant": true
    },
    {
      "inputs": [],
      "name": "name",
      "outputs": [
        {
          "internalType": "string",
          "name": "",
          "type": "string"
        }
      ],
      "stateMutability": "view",
      "type": "function",
      "constant": true
    },
    {
      "inputs": [
        {
          "internalType": "bytes32",
          "name": "",
          "type": "bytes32"
        }
      ],
      "name": "orders",
      "outputs": [
        {
          "internalType": "address",
          "name": "customer",
          "type": "address"
        },
        {
          "internalType": "bool",
          "name": "purchase",
          "type": "bool"
        },
        {
          "internalType": "uint256",
          "name": "amount",
          "type": "uint256"
        },
        {
          "internalType": "uint256",
          "name": "quantity",
          "type": "uint256"
        },
        {
          "internalType": "bytes32",
          "name": "receipt",
          "type": "bytes32"
        },
        {
          "internalType": "bool",
          "name": "valid",
          "type": "bool"
        }
      ],
      "stateMutability": "view",
      "type": "function",
      "constant": true
    },
    {
      "inputs": [],
      "name": "org",
      "outputs": [
        {
          "internalType": "address",
          "name": "",
          "type": "address"
        }
      ],
      "stateMutability": "view",
      "type": "function",
      "constant": true
    },
    {
      "inputs": [
        {
          "internalType": "bytes32",
          "name": "",
          "type": "bytes32"
        }
      ],
      "name": "receipts",
      "outputs": [
        {
          "internalType": "bool",
          "name": "",
          "type": "bool"
        }
      ],
      "stateMutability": "view",
      "type": "function",
      "constant": true
    },
    {
      "inputs": [
        {
          "internalType": "address",
          "name": "",
          "type": "address"
        }
      ],
      "name": "share",
      "outputs": [
        {
          "internalType": "uint256",
          "name": "",
          "type": "uint256"
        }
      ],
      "stateMutability": "view",
      "type": "function",
      "constant": true
    },
    {
      "inputs": [],
      "name": "usdc",
      "outputs": [
        {
          "internalType": "contract ERC20",
          "name": "",
          "type": "address"
        }
      ],
      "stateMutability": "view",
      "type": "function",
      "constant": true
    },
    {
      "inputs": [],
      "name": "like",
      "outputs": [],
      "stateMutability": "nonpayable",
      "type": "function"
    },
    {
      "inputs": [
        {
          "internalType": "address",
          "name": "buyer",
          "type": "address"
        },
        {
          "internalType": "address",
          "name": "seller",
          "type": "address"
        },
        {
          "internalType": "uint256",
          "name": "nstocks",
          "type": "uint256"
        },
        {
          "internalType": "uint256",
          "name": "amount",
          "type": "uint256"
        },
        {
          "internalType": "bytes32",
          "name": "ask_receipt",
          "type": "bytes32"
        },
        {
          "internalType": "bytes32",
          "name": "bid_receipt",
          "type": "bytes32"
        }
      ],
      "name": "makeDeal",
      "outputs": [
        {
          "internalType": "bool",
          "name": "",
          "type": "bool"
        }
      ],
      "stateMutability": "nonpayable",
      "type": "function"
    },
    {
      "inputs": [
        {
          "internalType": "address",
          "name": "buyer",
          "type": "address"
        },
        {
          "internalType": "uint256",
          "name": "nstocks",
          "type": "uint256"
        },
        {
          "internalType": "uint256",
          "name": "price",
          "type": "uint256"
        }
      ],
      "name": "bid",
      "outputs": [
        {
          "internalType": "bytes32",
          "name": "",
          "type": "bytes32"
        }
      ],
      "stateMutability": "payable",
      "type": "function",
      "payable": true
    },
    {
      "inputs": [
        {
          "internalType": "address",
          "name": "seller",
          "type": "address"
        },
        {
          "internalType": "uint256",
          "name": "nstocks",
          "type": "uint256"
        },
        {
          "internalType": "uint256",
          "name": "price",
          "type": "uint256"
        }
      ],
      "name": "ask",
      "outputs": [
        {
          "internalType": "bytes32",
          "name": "",
          "type": "bytes32"
        }
      ],
      "stateMutability": "payable",
      "type": "function",
      "payable": true
    },
    {
      "inputs": [
        {
          "internalType": "address",
          "name": "buyer",
          "type": "address"
        },
        {
          "internalType": "bytes32",
          "name": "receipt_addr",
          "type": "bytes32"
        }
      ],
      "name": "cancelBid",
      "outputs": [
        {
          "internalType": "bool",
          "name": "",
          "type": "bool"
        }
      ],
      "stateMutability": "nonpayable",
      "type": "function"
    },
    {
      "inputs": [
        {
          "internalType": "address",
          "name": "seller",
          "type": "address"
        },
        {
          "internalType": "bytes32",
          "name": "receipt_addr",
          "type": "bytes32"
        }
      ],
      "name": "cancelAsk",
      "outputs": [
        {
          "internalType": "bool",
          "name": "",
          "type": "bool"
        }
      ],
      "stateMutability": "nonpayable",
      "type": "function"
    }
  ],
  "bytecode": "0x60806040523480156200001157600080fd5b50604051620029e9380380620029e9833981810160405281019062000037919062000277565b83600490805190602001906200004f92919062000127565b5033600360006101000a81548173ffffffffffffffffffffffffffffffffffffffff021916908373ffffffffffffffffffffffffffffffffffffffff160217905550826000808473ffffffffffffffffffffffffffffffffffffffff1673ffffffffffffffffffffffffffffffffffffffff16815260200190815260200160002081905550600060058190555080600660006101000a81548173ffffffffffffffffffffffffffffffffffffffff021916908373ffffffffffffffffffffffffffffffffffffffff160217905550505050506200049f565b8280546200013590620003d7565b90600052602060002090601f016020900481019282620001595760008555620001a5565b82601f106200017457805160ff1916838001178555620001a5565b82800160010185558215620001a5579182015b82811115620001a457825182559160200191906001019062000187565b5b509050620001b49190620001b8565b5090565b5b80821115620001d3576000816000905550600101620001b9565b5090565b6000620001ee620001e88462000330565b620002fc565b9050828152602081018484840111156200020757600080fd5b62000214848285620003a1565b509392505050565b6000815190506200022d816200046b565b92915050565b600082601f8301126200024557600080fd5b815162000257848260208601620001d7565b91505092915050565b600081519050620002718162000485565b92915050565b600080600080608085870312156200028e57600080fd5b600085015167ffffffffffffffff811115620002a957600080fd5b620002b78782880162000233565b9450506020620002ca8782880162000260565b9350506040620002dd878288016200021c565b9250506060620002f0878288016200021c565b91505092959194509250565b6000604051905081810181811067ffffffffffffffff821117156200032657620003256200043c565b5b8060405250919050565b600067ffffffffffffffff8211156200034e576200034d6200043c565b5b601f19601f8301169050602081019050919050565b6000620003708262000377565b9050919050565b600073ffffffffffffffffffffffffffffffffffffffff82169050919050565b6000819050919050565b60005b83811015620003c1578082015181840152602081019050620003a4565b83811115620003d1576000848401525b50505050565b60006002820490506001821680620003f057607f821691505b602082108114156200040757620004066200040d565b5b50919050565b7f4e487b7100000000000000000000000000000000000000000000000000000000600052602260045260246000fd5b7f4e487b7100000000000000000000000000000000000000000000000000000000600052604160045260246000fd5b620004768162000363565b81146200048257600080fd5b50565b620004908162000397565b81146200049c57600080fd5b50565b61253a80620004af6000396000f3fe6080604052600436106100c25760003560e01c806390edf0651161007f578063cc1e2cb011610059578063cc1e2cb01461028d578063d1dc9bd8146102b8578063ef6cf04d146102e3578063ff2d27bd14610320576100c2565b806390edf065146102045780639c3f1e9014610234578063a523b88a14610276576100c2565b806306fdde03146100c75780630f41ba4b146100f25780631877bb5c146101225780632525f5c11461015f5780633e413bee1461019c57806377b27207146101c7575b600080fd5b3480156100d357600080fd5b506100dc61035d565b6040516100e99190612006565b60405180910390f35b61010c60048036038101906101079190611818565b6103eb565b6040516101199190611fd0565b60405180910390f35b34801561012e57600080fd5b506101496004803603810190610144919061172a565b6105f6565b6040516101569190612208565b60405180910390f35b34801561016b57600080fd5b50610186600480360381019061018191906117dc565b61060e565b6040516101939190611fb5565b60405180910390f35b3480156101a857600080fd5b506101b161092e565b6040516101be9190611feb565b60405180910390f35b3480156101d357600080fd5b506101ee60048036038101906101e991906117dc565b610954565b6040516101fb9190611fb5565b60405180910390f35b61021e60048036038101906102199190611818565b610c7b565b60405161022b9190611fd0565b60405180910390f35b34801561024057600080fd5b5061025b60048036038101906102569190611890565b610e86565b60405161026d96959493929190611f2b565b60405180910390f35b34801561028257600080fd5b5061028b610efc565b005b34801561029957600080fd5b506102a2610fa8565b6040516102af9190611eb0565b60405180910390f35b3480156102c457600080fd5b506102cd610fce565b6040516102da9190612208565b60405180910390f35b3480156102ef57600080fd5b5061030a60048036038101906103059190611890565b610fd4565b6040516103179190611fb5565b60405180910390f35b34801561032c57600080fd5b5061034760048036038101906103429190611753565b610ff4565b6040516103549190611fb5565b60405180910390f35b6004805461036a906123cc565b80601f0160208091040260200160405190810160405280929190818152602001828054610396906123cc565b80156103e35780601f106103b8576101008083540402835291602001916103e3565b820191906000526020600020905b8154815290600101906020018083116103c657829003601f168201915b505050505081565b6000600360009054906101000a900473ffffffffffffffffffffffffffffffffffffffff1673ffffffffffffffffffffffffffffffffffffffff163373ffffffffffffffffffffffffffffffffffffffff161461047d576040517f08c379a0000000000000000000000000000000000000000000000000000000008152600401610474906120e8565b60405180910390fd5b60008442604051602001610492929190611e84565b60405160208183030381529060405280519060200120905060006040518060c001604052808773ffffffffffffffffffffffffffffffffffffffff16815260200160011515815260200186866104e89190612295565b815260200186815260200183815260200160011515815250905060016002600084815260200190815260200160002060006101000a81548160ff021916908315150217905550806001600084815260200190815260200160002060008201518160000160006101000a81548173ffffffffffffffffffffffffffffffffffffffff021916908373ffffffffffffffffffffffffffffffffffffffff16021790555060208201518160000160146101000a81548160ff02191690831515021790555060408201518160010155606082015181600201556080820151816003015560a08201518160040160006101000a81548160ff02191690831515021790555090505081925050509392505050565b60006020528060005260406000206000915090505481565b6000600360009054906101000a900473ffffffffffffffffffffffffffffffffffffffff1673ffffffffffffffffffffffffffffffffffffffff163373ffffffffffffffffffffffffffffffffffffffff16146106a0576040517f08c379a0000000000000000000000000000000000000000000000000000000008152600401610697906120e8565b60405180910390fd5b600115156002600084815260200190815260200160002060009054906101000a900460ff16151514610707576040517f08c379a00000000000000000000000000000000000000000000000000000000081526004016106fe90612128565b60405180910390fd5b8160016000848152602001908152602001600020600301541461075f576040517f08c379a000000000000000000000000000000000000000000000000000000000815260040161075690612068565b60405180910390fd5b6001600083815260200190815260200160002060040160009054906101000a900460ff166107c2576040517f08c379a00000000000000000000000000000000000000000000000000000000081526004016107b9906120c8565b60405180910390fd5b8273ffffffffffffffffffffffffffffffffffffffff166001600084815260200190815260200160002060000160009054906101000a900473ffffffffffffffffffffffffffffffffffffffff1673ffffffffffffffffffffffffffffffffffffffff1614610866576040517f08c379a000000000000000000000000000000000000000000000000000000000815260040161085d906121e8565b60405180910390fd5b6001600083815260200190815260200160002060000160149054906101000a900460ff166108c9576040517f08c379a00000000000000000000000000000000000000000000000000000000081526004016108c0906120a8565b60405180910390fd5b60006002600084815260200190815260200160002060006101000a81548160ff02191690831515021790555060006001600084815260200190815260200160002060040160006101000a81548160ff0219169083151502179055506001905092915050565b600660009054906101000a900473ffffffffffffffffffffffffffffffffffffffff1681565b6000600360009054906101000a900473ffffffffffffffffffffffffffffffffffffffff1673ffffffffffffffffffffffffffffffffffffffff163373ffffffffffffffffffffffffffffffffffffffff16146109e6576040517f08c379a00000000000000000000000000000000000000000000000000000000081526004016109dd906120e8565b60405180910390fd5b600115156002600084815260200190815260200160002060009054906101000a900460ff16151514610a4d576040517f08c379a0000000000000000000000000000000000000000000000000000000008152600401610a4490612128565b60405180910390fd5b81600160008481526020019081526020016000206003015414610aa5576040517f08c379a0000000000000000000000000000000000000000000000000000000008152600401610a9c90612068565b60405180910390fd5b6001600083815260200190815260200160002060040160009054906101000a900460ff16610b08576040517f08c379a0000000000000000000000000000000000000000000000000000000008152600401610aff906120c8565b60405180910390fd5b8273ffffffffffffffffffffffffffffffffffffffff166001600084815260200190815260200160002060000160009054906101000a900473ffffffffffffffffffffffffffffffffffffffff1673ffffffffffffffffffffffffffffffffffffffff1614610bac576040517f08c379a0000000000000000000000000000000000000000000000000000000008152600401610ba3906121a8565b60405180910390fd5b600015156001600084815260200190815260200160002060000160149054906101000a900460ff16151514610c16576040517f08c379a0000000000000000000000000000000000000000000000000000000008152600401610c0d90612028565b60405180910390fd5b60006002600084815260200190815260200160002060006101000a81548160ff02191690831515021790555060006001600084815260200190815260200160002060040160006101000a81548160ff0219169083151502179055506001905092915050565b6000600360009054906101000a900473ffffffffffffffffffffffffffffffffffffffff1673ffffffffffffffffffffffffffffffffffffffff163373ffffffffffffffffffffffffffffffffffffffff1614610d0d576040517f08c379a0000000000000000000000000000000000000000000000000000000008152600401610d04906120e8565b60405180910390fd5b60008442604051602001610d22929190611e84565b60405160208183030381529060405280519060200120905060006040518060c001604052808773ffffffffffffffffffffffffffffffffffffffff1681526020016000151581526020018686610d789190612295565b815260200186815260200183815260200160011515815250905060016002600084815260200190815260200160002060006101000a81548160ff021916908315150217905550806001600084815260200190815260200160002060008201518160000160006101000a81548173ffffffffffffffffffffffffffffffffffffffff021916908373ffffffffffffffffffffffffffffffffffffffff16021790555060208201518160000160146101000a81548160ff02191690831515021790555060408201518160010155606082015181600201556080820151816003015560a08201518160040160006101000a81548160ff02191690831515021790555090505081925050509392505050565b60016020528060005260406000206000915090508060000160009054906101000a900473ffffffffffffffffffffffffffffffffffffffff16908060000160149054906101000a900460ff16908060010154908060020154908060030154908060040160009054906101000a900460ff16905086565b600360009054906101000a900473ffffffffffffffffffffffffffffffffffffffff1673ffffffffffffffffffffffffffffffffffffffff163373ffffffffffffffffffffffffffffffffffffffff1614610f8c576040517f08c379a0000000000000000000000000000000000000000000000000000000008152600401610f8390612108565b60405180910390fd5b600160056000828254610f9f919061223f565b92505081905550565b600360009054906101000a900473ffffffffffffffffffffffffffffffffffffffff1681565b60055481565b60026020528060005260406000206000915054906101000a900460ff1681565b6000600360009054906101000a900473ffffffffffffffffffffffffffffffffffffffff1673ffffffffffffffffffffffffffffffffffffffff163373ffffffffffffffffffffffffffffffffffffffff1614611086576040517f08c379a000000000000000000000000000000000000000000000000000000000815260040161107d90612088565b60405180910390fd5b6002600084815260200190815260200160002060009054906101000a900460ff1680156110d057506002600083815260200190815260200160002060009054906101000a900460ff165b61110f576040517f08c379a000000000000000000000000000000000000000000000000000000000815260040161110690612148565b60405180910390fd5b6000600160008581526020019081526020016000206040518060c00160405290816000820160009054906101000a900473ffffffffffffffffffffffffffffffffffffffff1673ffffffffffffffffffffffffffffffffffffffff1673ffffffffffffffffffffffffffffffffffffffff1681526020016000820160149054906101000a900460ff161515151581526020016001820154815260200160028201548152602001600382015481526020016004820160009054906101000a900460ff16151515158152505090506000600160008581526020019081526020016000206040518060c00160405290816000820160009054906101000a900473ffffffffffffffffffffffffffffffffffffffff1673ffffffffffffffffffffffffffffffffffffffff1673ffffffffffffffffffffffffffffffffffffffff1681526020016000820160149054906101000a900460ff161515151581526020016001820154815260200160028201548152602001600382015481526020016004820160009054906101000a900460ff161515151581525050905081604001518610156112ee576040517f08c379a00000000000000000000000000000000000000000000000000000000081526004016112e590612188565b60405180910390fd5b8060400151861115611335576040517f08c379a000000000000000000000000000000000000000000000000000000000815260040161132c906121c8565b60405180910390fd5b866000808a73ffffffffffffffffffffffffffffffffffffffff1673ffffffffffffffffffffffffffffffffffffffff1681526020019081526020016000205410156113b6576040517f08c379a00000000000000000000000000000000000000000000000000000000081526004016113ad90612048565b60405180910390fd5b85600660009054906101000a900473ffffffffffffffffffffffffffffffffffffffff1673ffffffffffffffffffffffffffffffffffffffff1663dd62ed3e8b306040518363ffffffff1660e01b8152600401611414929190611ecb565b60206040518083038186803b15801561142c57600080fd5b505afa158015611440573d6000803e3d6000fd5b505050506040513d601f19601f8201168201806040525081019061146491906118b9565b10156114a5576040517f08c379a000000000000000000000000000000000000000000000000000000000815260040161149c90612168565b60405180910390fd5b600660009054906101000a900473ffffffffffffffffffffffffffffffffffffffff1673ffffffffffffffffffffffffffffffffffffffff166323b872dd8a30896040518463ffffffff1660e01b815260040161150493929190611ef4565b602060405180830381600087803b15801561151e57600080fd5b505af1158015611532573d6000803e3d6000fd5b505050506040513d601f19601f820116820180604052508101906115569190611867565b50600660009054906101000a900473ffffffffffffffffffffffffffffffffffffffff1673ffffffffffffffffffffffffffffffffffffffff1663a9059cbb89886040518363ffffffff1660e01b81526004016115b4929190611f8c565b602060405180830381600087803b1580156115ce57600080fd5b505af11580156115e2573d6000803e3d6000fd5b505050506040513d601f19601f820116820180604052508101906116069190611867565b50866000808a73ffffffffffffffffffffffffffffffffffffffff1673ffffffffffffffffffffffffffffffffffffffff168152602001908152602001600020600082825461165591906122ef565b92505081905550866000808b73ffffffffffffffffffffffffffffffffffffffff1673ffffffffffffffffffffffffffffffffffffffff16815260200190815260200160002060008282546116aa919061223f565b925050819055506001925050509695505050505050565b6000813590506116d0816124a8565b92915050565b6000815190506116e5816124bf565b92915050565b6000813590506116fa816124d6565b92915050565b60008135905061170f816124ed565b92915050565b600081519050611724816124ed565b92915050565b60006020828403121561173c57600080fd5b600061174a848285016116c1565b91505092915050565b60008060008060008060c0878903121561176c57600080fd5b600061177a89828a016116c1565b965050602061178b89828a016116c1565b955050604061179c89828a01611700565b94505060606117ad89828a01611700565b93505060806117be89828a016116eb565b92505060a06117cf89828a016116eb565b9150509295509295509295565b600080604083850312156117ef57600080fd5b60006117fd858286016116c1565b925050602061180e858286016116eb565b9150509250929050565b60008060006060848603121561182d57600080fd5b600061183b868287016116c1565b935050602061184c86828701611700565b925050604061185d86828701611700565b9150509250925092565b60006020828403121561187957600080fd5b6000611887848285016116d6565b91505092915050565b6000602082840312156118a257600080fd5b60006118b0848285016116eb565b91505092915050565b6000602082840312156118cb57600080fd5b60006118d984828501611715565b91505092915050565b6118eb81612323565b82525050565b6119026118fd82612323565b6123fe565b82525050565b61191181612335565b82525050565b61192081612341565b82525050565b61192f81612375565b82525050565b600061194082612223565b61194a818561222e565b935061195a818560208601612399565b6119638161248a565b840191505092915050565b600061197b601a8361222e565b91507f546865206f726465722069732061206275796572206f726465720000000000006000830152602082019050919050565b60006119bb60248361222e565b91507f5468652073656c6c657220646f65736e2774206861766520656e6f756768207360008301527f68617265000000000000000000000000000000000000000000000000000000006020830152604082019050919050565b6000611a21601f8361222e565b91507f546865206f726465722068617320646966666572656e742072656365697074006000830152602082019050919050565b6000611a6160268361222e565b91507f6f6e6c79206f7267616e697a6174696f6e2063616e20636f6e6669726d20746860008301527f65206465616c00000000000000000000000000000000000000000000000000006020830152604082019050919050565b6000611ac7601b8361222e565b91507f546865206f7264657220697320612073656c6c6572206f7264657200000000006000830152602082019050919050565b6000611b07602c8361222e565b91507f546865206f72646572206973206e6f742076616c69642e20497320616c72656160008301527f64792063616e63656c6c656400000000000000000000000000000000000000006020830152604082019050919050565b6000611b6d602f8361222e565b91507f6f6e6c7920746865206d61726b657420636f6e74726163742063616e2063616c60008301527f6c20746869732066756e6374696f6e00000000000000000000000000000000006020830152604082019050919050565b6000611bd3602c8361222e565b91507f6f6e6c79206f7267616e697a6174696f6e2063616e2063616c6c20746865206c60008301527f696b652066756e6374696f6e00000000000000000000000000000000000000006020830152604082019050919050565b6000611c3960178361222e565b91507f546865206f7264657220646f65736e27742065786973740000000000000000006000830152602082019050919050565b6000611c7960138361222e565b91507f526563656970747320697320696e76616c6964000000000000000000000000006000830152602082019050919050565b6000611cb960278361222e565b91507f54686520627579657220646f65736e2774206861766520656e6f75676820616c60008301527f6c6f77616e6365000000000000000000000000000000000000000000000000006020830152604082019050919050565b6000611d1f60248361222e565b91507f546865207072696365206973206c657373207468616e207468652061736b207060008301527f72696365000000000000000000000000000000000000000000000000000000006020830152604082019050919050565b6000611d8560188361222e565b91507f53656c6c65722061646472657373206d69736d736174636800000000000000006000830152602082019050919050565b6000611dc560288361222e565b91507f5468652070726963652069732067726561746572207468616e2074686520626960008301527f6420616d6f756e740000000000000000000000000000000000000000000000006020830152604082019050919050565b6000611e2b60178361222e565b91507f42757965722061646472657373206d69736d73617463680000000000000000006000830152602082019050919050565b611e678161236b565b82525050565b611e7e611e798261236b565b612422565b82525050565b6000611e9082856118f1565b601482019150611ea08284611e6d565b6020820191508190509392505050565b6000602082019050611ec560008301846118e2565b92915050565b6000604082019050611ee060008301856118e2565b611eed60208301846118e2565b9392505050565b6000606082019050611f0960008301866118e2565b611f1660208301856118e2565b611f236040830184611e5e565b949350505050565b600060c082019050611f4060008301896118e2565b611f4d6020830188611908565b611f5a6040830187611e5e565b611f676060830186611e5e565b611f746080830185611917565b611f8160a0830184611908565b979650505050505050565b6000604082019050611fa160008301856118e2565b611fae6020830184611e5e565b9392505050565b6000602082019050611fca6000830184611908565b92915050565b6000602082019050611fe56000830184611917565b92915050565b60006020820190506120006000830184611926565b92915050565b600060208201905081810360008301526120208184611935565b905092915050565b600060208201905081810360008301526120418161196e565b9050919050565b60006020820190508181036000830152612061816119ae565b9050919050565b6000602082019050818103600083015261208181611a14565b9050919050565b600060208201905081810360008301526120a181611a54565b9050919050565b600060208201905081810360008301526120c181611aba565b9050919050565b600060208201905081810360008301526120e181611afa565b9050919050565b6000602082019050818103600083015261210181611b60565b9050919050565b6000602082019050818103600083015261212181611bc6565b9050919050565b6000602082019050818103600083015261214181611c2c565b9050919050565b6000602082019050818103600083015261216181611c6c565b9050919050565b6000602082019050818103600083015261218181611cac565b9050919050565b600060208201905081810360008301526121a181611d12565b9050919050565b600060208201905081810360008301526121c181611d78565b9050919050565b600060208201905081810360008301526121e181611db8565b9050919050565b6000602082019050818103600083015261220181611e1e565b9050919050565b600060208201905061221d6000830184611e5e565b92915050565b600081519050919050565b600082825260208201905092915050565b600061224a8261236b565b91506122558361236b565b9250827fffffffffffffffffffffffffffffffffffffffffffffffffffffffffffffffff0382111561228a5761228961242c565b5b828201905092915050565b60006122a08261236b565b91506122ab8361236b565b9250817fffffffffffffffffffffffffffffffffffffffffffffffffffffffffffffffff04831182151516156122e4576122e361242c565b5b828202905092915050565b60006122fa8261236b565b91506123058361236b565b9250828210156123185761231761242c565b5b828203905092915050565b600061232e8261234b565b9050919050565b60008115159050919050565b6000819050919050565b600073ffffffffffffffffffffffffffffffffffffffff82169050919050565b6000819050919050565b600061238082612387565b9050919050565b60006123928261234b565b9050919050565b60005b838110156123b757808201518184015260208101905061239c565b838111156123c6576000848401525b50505050565b600060028204905060018216806123e457607f821691505b602082108114156123f8576123f761245b565b5b50919050565b600061240982612410565b9050919050565b600061241b8261249b565b9050919050565b6000819050919050565b7f4e487b7100000000000000000000000000000000000000000000000000000000600052601160045260246000fd5b7f4e487b7100000000000000000000000000000000000000000000000000000000600052602260045260246000fd5b6000601f19601f8301169050919050565b60008160601b9050919050565b6124b181612323565b81146124bc57600080fd5b50565b6124c881612335565b81146124d357600080fd5b50565b6124df81612341565b81146124ea57600080fd5b50565b6124f68161236b565b811461250157600080fd5b5056fea26469706673582212209e754e4326e1439e938a6b09371ffe400902052f96e65652ed1b3364611e91ed64736f6c63430008000033",
  "immutableReferences": {},
  "source": "// SPDX-License-Identifier: MIT\r\npragma solidity >=0.4.22 <0.9.0;\r\nimport \"@openzeppelin/contracts/token/ERC20/ERC20.sol\";\r\n\r\n\r\n//minimize the number of contract calls for single transaction\r\n//maximize the number of transaction\r\ncontract Page{\r\n\r\n    struct Order{\r\n        address customer;\r\n        bool purchase;\r\n        uint amount;\r\n        uint quantity;\r\n        bytes32 receipt;\r\n        bool valid;\r\n    }  \r\n\r\n    mapping(address => uint) public share;\r\n    mapping(bytes32 => Order)  public orders;\r\n    mapping(bytes32 => bool)  public receipts;\r\n    address  public org;\r\n    string  public name;\r\n    uint  public likes;\r\n    ERC20  public usdc;\r\n\r\n    constructor(string memory _name, uint nstocks, address owner, address _token) {\r\n        name=_name;\r\n        org=msg.sender;\r\n        share[owner]=nstocks;\r\n        likes=0;\r\n        usdc = ERC20(_token);\r\n    }\r\n\r\n    function like() public {\r\n        require(msg.sender==org, \"only organization can call the like function\");\r\n        likes += 1;\r\n    }\r\n    \r\n\r\n    function makeDeal(address buyer, address seller, uint nstocks, uint amount, bytes32 ask_receipt, bytes32 bid_receipt) public returns(bool) {\r\n        require(msg.sender==org, \"only organization can confirm the deal\");\r\n        require(receipts[ask_receipt] && receipts[bid_receipt], \"Receipts is invalid\");\r\n        Order memory ask_order=orders[ask_receipt];\r\n        Order memory bid_order = orders[bid_receipt];\r\n        require(amount >= ask_order.amount, \"The price is less than the ask price\");\r\n        require(amount <= bid_order.amount, \"The price is greater than the bid amount\");\r\n        require(share[seller] >= nstocks, \"The seller doesn't have enough share\");\r\n        require(usdc.allowance(buyer, address(this)) >= amount, \"The buyer doesn't have enough allowance\");\r\n        usdc.transferFrom(buyer, address(this), amount);\r\n        usdc.transfer(seller, amount);\r\n\r\n\r\n        share[seller] -= nstocks;\r\n        share[buyer] += nstocks;\r\n\r\n\r\n        return true;\r\n    }\r\n\r\n    function bid(address buyer, uint nstocks, uint price) payable public returns(bytes32){\r\n        require(msg.sender==org, \"only the market contract can call this function\");\r\n        bytes32 receipt = keccak256(abi.encodePacked(buyer, block.timestamp));\r\n        Order memory order = Order(buyer, true, price*nstocks, nstocks, receipt, true);\r\n        receipts[receipt]=true;\r\n        orders[receipt]=order;\r\n        return receipt;\r\n    }\r\n\r\n    function ask(address seller, uint nstocks, uint price) public payable returns(bytes32){\r\n        require(msg.sender==org, \"only the market contract can call this function\");\r\n        bytes32 receipt = keccak256(abi.encodePacked(seller, block.timestamp));\r\n        Order memory order = Order(seller, false, price*nstocks, nstocks, receipt, true);\r\n        receipts[receipt]=true;\r\n        orders[receipt]=order;\r\n        return receipt;\r\n    }\r\n\r\n    function cancelBid(address buyer, bytes32 receipt_addr) public returns(bool){\r\n        require(msg.sender==org, \"only the market contract can call this function\");\r\n        require(receipts[receipt_addr]==true, \"The order doesn't exist\");\r\n        require(orders[receipt_addr].receipt == receipt_addr, \"The order has different receipt\");\r\n        require(orders[receipt_addr].valid, \"The order is not valid. Is already cancelled\");\r\n        require(orders[receipt_addr].customer==buyer, \"Buyer address mismsatch\");\r\n        require(orders[receipt_addr].purchase, \"The order is a seller order\");\r\n        receipts[receipt_addr]=false;\r\n        orders[receipt_addr].valid=false;\r\n        return true;\r\n    }\r\n\r\n    function cancelAsk(address seller, bytes32 receipt_addr) public returns(bool){\r\n        require(msg.sender==org, \"only the market contract can call this function\");\r\n        require(receipts[receipt_addr]==true, \"The order doesn't exist\");\r\n        require(orders[receipt_addr].receipt == receipt_addr, \"The order has different receipt\");\r\n        require(orders[receipt_addr].valid, \"The order is not valid. Is already cancelled\");\r\n        require(orders[receipt_addr].customer==seller, \"Seller address mismsatch\");\r\n        require(orders[receipt_addr].purchase==false, \"The order is a buyer order\");\r\n        receipts[receipt_addr]=false;\r\n        orders[receipt_addr].valid=false;\r\n        return true;\r\n    }\r\n\r\n    \r\n}\r\n\r\ncontract Market{\r\n\r\n    address[] public pages;\r\n    mapping(address => uint) public rem_reactions;\r\n    mapping(address => uint) public subscribers;\r\n    address public org;\r\n    address public token;\r\n    uint public subscription_fee;\r\n    ERC20 public usdc;\r\n\r\n    constructor(uint _fee, address _token){\r\n        org = msg.sender;\r\n        subscription_fee = _fee;\r\n        token=_token;\r\n        usdc=ERC20(_token);\r\n    }\r\n\r\n\r\n    function deposit(uint256 amount) public returns (bool) {\r\n        uint256 allowance = usdc.allowance(msg.sender, address(this));\r\n        require(allowance >= amount, \"Allowance is not adequete\");\r\n        usdc.transferFrom(msg.sender, address(this), amount);\r\n        return true;\r\n    }\r\n\r\n    function ipo(string memory _name, uint nstocks) public returns(address) {\r\n        Page page = new Page(_name, nstocks, msg.sender, token);\r\n        pages.push(address(page));\r\n        return address(page);\r\n    }\r\n\r\n    function subscribe(uint validity) public {\r\n        deposit(validity*subscription_fee);\r\n        subscribers[msg.sender]=block.timestamp + validity * 1 days;\r\n    }\r\n\r\n    function isSubscriber() public returns(uint){\r\n        return subscribers[msg.sender];\r\n    }\r\n\r\n    function like(address page_addr) public {\r\n        address user = msg.sender;\r\n        require(subscribers[user]!=0, \"The user has not subscribered\");\r\n        require(rem_reactions[user] > 0, \"The user has no reactions left\");\r\n        Page page = Page(page_addr);\r\n        page.like();\r\n    }\r\n\r\n    function bid(address page_addr, uint nstocks, uint price) public returns(bytes32) {\r\n        Page page = Page(page_addr);\r\n        require(usdc.allowance(msg.sender, page_addr) > nstocks*price, \"Not enough allowance\");\r\n        return page.bid(msg.sender, nstocks, price);\r\n    }\r\n\r\n    function ask(address page_addr, uint nstocks, uint price) public returns(bytes32){\r\n        Page page = Page(page_addr);\r\n        return page.ask(msg.sender, nstocks, price);\r\n    }\r\n\r\n    function cancelBid(address page_addr, bytes32 receipt) public returns (bool){\r\n        Page page = Page(page_addr);\r\n        page.cancelBid(msg.sender, receipt);\r\n        return true;\r\n    }\r\n\r\n    function cancelAsk(address page_addr, bytes32 receipt) public returns (bool){\r\n        Page page = Page(page_addr);\r\n        page.cancelAsk(msg.sender, receipt);\r\n        return true;\r\n    }\r\n\r\n    function makeDeal(address page_addr, address buyer, address seller, uint nstocks, uint amount, bytes32 ask_receipt, bytes32 bid_receipt) public {\r\n        require(msg.sender==org, \"only organization can confirm the deal\");\r\n        Page page = Page(page_addr);\r\n        page.makeDeal(buyer, seller, nstocks, amount, ask_receipt, bid_receipt);\r\n    }\r\n\r\n}",
  "sourcePath": "D:/projects/hackthemountains/Xcalate/SmartContracts/contracts/Page.sol",
  "compiler": {
    "name": "solc",
    "version": "0.8.0+commit.c7dfd78e.Emscripten.clang"
  },
  "schemaVersion": "3.4.1",
  "updatedAt": "2021-06-27T05:45:51.707Z",
  "networkType": "ethereum",
  "devdoc": {
    "kind": "dev",
    "methods": {},
    "version": 1
  },
  "userdoc": {
    "kind": "user",
    "methods": {},
    "version": 1
  }
}