{
  "contractName": "Page",
  "abi": [
    {
      "inputs": [
        {
          "internalType": "string",
          "name": "_name",
          "type": "string"
        },
        {
          "internalType": "uint256",
          "name": "nstocks",
          "type": "uint256"
        },
        {
          "internalType": "address",
          "name": "owner",
          "type": "address"
        },
        {
          "internalType": "address",
          "name": "_token",
          "type": "address"
        }
      ],
      "stateMutability": "nonpayable",
      "type": "constructor"
    },
    {
      "inputs": [],
      "name": "likes",
      "outputs": [
        {
          "internalType": "uint256",
          "name": "",
          "type": "uint256"
        }
      ],
      "stateMutability": "view",
      "type": "function",
      "constant": true
    },
    {
      "inputs": [],
      "name": "name",
      "outputs": [
        {
          "internalType": "string",
          "name": "",
          "type": "string"
        }
      ],
      "stateMutability": "view",
      "type": "function",
      "constant": true
    },
    {
      "inputs": [
        {
          "internalType": "bytes32",
          "name": "",
          "type": "bytes32"
        }
      ],
      "name": "orders",
      "outputs": [
        {
          "internalType": "address",
          "name": "customer",
          "type": "address"
        },
        {
          "internalType": "bool",
          "name": "purchase",
          "type": "bool"
        },
        {
          "internalType": "uint256",
          "name": "amount",
          "type": "uint256"
        },
        {
          "internalType": "uint256",
          "name": "quantity",
          "type": "uint256"
        },
        {
          "internalType": "bytes32",
          "name": "receipt",
          "type": "bytes32"
        },
        {
          "internalType": "bool",
          "name": "valid",
          "type": "bool"
        }
      ],
      "stateMutability": "view",
      "type": "function",
      "constant": true
    },
    {
      "inputs": [],
      "name": "org",
      "outputs": [
        {
          "internalType": "address",
          "name": "",
          "type": "address"
        }
      ],
      "stateMutability": "view",
      "type": "function",
      "constant": true
    },
    {
      "inputs": [
        {
          "internalType": "bytes32",
          "name": "",
          "type": "bytes32"
        }
      ],
      "name": "receipts",
      "outputs": [
        {
          "internalType": "bool",
          "name": "",
          "type": "bool"
        }
      ],
      "stateMutability": "view",
      "type": "function",
      "constant": true
    },
    {
      "inputs": [
        {
          "internalType": "address",
          "name": "",
          "type": "address"
        }
      ],
      "name": "share",
      "outputs": [
        {
          "internalType": "uint256",
          "name": "",
          "type": "uint256"
        }
      ],
      "stateMutability": "view",
      "type": "function",
      "constant": true
    },
    {
      "inputs": [],
      "name": "usdc",
      "outputs": [
        {
          "internalType": "contract ERC20",
          "name": "",
          "type": "address"
        }
      ],
      "stateMutability": "view",
      "type": "function",
      "constant": true
    },
    {
      "inputs": [],
      "name": "like",
      "outputs": [],
      "stateMutability": "nonpayable",
      "type": "function"
    },
    {
      "inputs": [
        {
          "internalType": "address",
          "name": "buyer",
          "type": "address"
        },
        {
          "internalType": "address",
          "name": "seller",
          "type": "address"
        },
        {
          "internalType": "uint256",
          "name": "nstocks",
          "type": "uint256"
        },
        {
          "internalType": "uint256",
          "name": "amount",
          "type": "uint256"
        },
        {
          "internalType": "bytes32",
          "name": "ask_receipt",
          "type": "bytes32"
        },
        {
          "internalType": "bytes32",
          "name": "bid_receipt",
          "type": "bytes32"
        }
      ],
      "name": "makeDeal",
      "outputs": [
        {
          "internalType": "bool",
          "name": "",
          "type": "bool"
        }
      ],
      "stateMutability": "nonpayable",
      "type": "function"
    },
    {
      "inputs": [
        {
          "internalType": "address",
          "name": "buyer",
          "type": "address"
        },
        {
          "internalType": "uint256",
          "name": "nstocks",
          "type": "uint256"
        },
        {
          "internalType": "uint256",
          "name": "price",
          "type": "uint256"
        }
      ],
      "name": "bid",
      "outputs": [
        {
          "internalType": "bytes32",
          "name": "",
          "type": "bytes32"
        }
      ],
      "stateMutability": "payable",
      "type": "function",
      "payable": true
    },
    {
      "inputs": [
        {
          "internalType": "address",
          "name": "seller",
          "type": "address"
        },
        {
          "internalType": "uint256",
          "name": "nstocks",
          "type": "uint256"
        },
        {
          "internalType": "uint256",
          "name": "price",
          "type": "uint256"
        }
      ],
      "name": "ask",
      "outputs": [
        {
          "internalType": "bytes32",
          "name": "",
          "type": "bytes32"
        }
      ],
      "stateMutability": "payable",
      "type": "function",
      "payable": true
    },
    {
      "inputs": [
        {
          "internalType": "address",
          "name": "buyer",
          "type": "address"
        },
        {
          "internalType": "bytes32",
          "name": "receipt_addr",
          "type": "bytes32"
        }
      ],
      "name": "cancelBid",
      "outputs": [
        {
          "internalType": "bool",
          "name": "",
          "type": "bool"
        }
      ],
      "stateMutability": "nonpayable",
      "type": "function"
    },
    {
      "inputs": [
        {
          "internalType": "address",
          "name": "seller",
          "type": "address"
        },
        {
          "internalType": "bytes32",
          "name": "receipt_addr",
          "type": "bytes32"
        }
      ],
      "name": "cancelAsk",
      "outputs": [
        {
          "internalType": "bool",
          "name": "",
          "type": "bool"
        }
      ],
      "stateMutability": "nonpayable",
      "type": "function"
    }
  ],
  "bytecode": "0x60806040523480156200001157600080fd5b5060405162002a3f38038062002a3f833981810160405281019062000037919062000277565b83600490805190602001906200004f92919062000127565b5033600360006101000a81548173ffffffffffffffffffffffffffffffffffffffff021916908373ffffffffffffffffffffffffffffffffffffffff160217905550826000808473ffffffffffffffffffffffffffffffffffffffff1673ffffffffffffffffffffffffffffffffffffffff16815260200190815260200160002081905550600060058190555080600660006101000a81548173ffffffffffffffffffffffffffffffffffffffff021916908373ffffffffffffffffffffffffffffffffffffffff160217905550505050506200049f565b8280546200013590620003d7565b90600052602060002090601f016020900481019282620001595760008555620001a5565b82601f106200017457805160ff1916838001178555620001a5565b82800160010185558215620001a5579182015b82811115620001a457825182559160200191906001019062000187565b5b509050620001b49190620001b8565b5090565b5b80821115620001d3576000816000905550600101620001b9565b5090565b6000620001ee620001e88462000330565b620002fc565b9050828152602081018484840111156200020757600080fd5b62000214848285620003a1565b509392505050565b6000815190506200022d816200046b565b92915050565b600082601f8301126200024557600080fd5b815162000257848260208601620001d7565b91505092915050565b600081519050620002718162000485565b92915050565b600080600080608085870312156200028e57600080fd5b600085015167ffffffffffffffff811115620002a957600080fd5b620002b78782880162000233565b9450506020620002ca8782880162000260565b9350506040620002dd878288016200021c565b9250506060620002f0878288016200021c565b91505092959194509250565b6000604051905081810181811067ffffffffffffffff821117156200032657620003256200043c565b5b8060405250919050565b600067ffffffffffffffff8211156200034e576200034d6200043c565b5b601f19601f8301169050602081019050919050565b6000620003708262000377565b9050919050565b600073ffffffffffffffffffffffffffffffffffffffff82169050919050565b6000819050919050565b60005b83811015620003c1578082015181840152602081019050620003a4565b83811115620003d1576000848401525b50505050565b60006002820490506001821680620003f057607f821691505b602082108114156200040757620004066200040d565b5b50919050565b7f4e487b7100000000000000000000000000000000000000000000000000000000600052602260045260246000fd5b7f4e487b7100000000000000000000000000000000000000000000000000000000600052604160045260246000fd5b620004768162000363565b81146200048257600080fd5b50565b620004908162000397565b81146200049c57600080fd5b50565b61259080620004af6000396000f3fe6080604052600436106100c25760003560e01c806390edf0651161007f578063cc1e2cb011610059578063cc1e2cb01461028d578063d1dc9bd8146102b8578063ef6cf04d146102e3578063ff2d27bd14610320576100c2565b806390edf065146102045780639c3f1e9014610234578063a523b88a14610276576100c2565b806306fdde03146100c75780630f41ba4b146100f25780631877bb5c146101225780632525f5c11461015f5780633e413bee1461019c57806377b27207146101c7575b600080fd5b3480156100d357600080fd5b506100dc61035d565b6040516100e9919061205c565b60405180910390f35b61010c6004803603810190610107919061186e565b6103eb565b6040516101199190612026565b60405180910390f35b34801561012e57600080fd5b5061014960048036038101906101449190611780565b6105ca565b604051610156919061225e565b60405180910390f35b34801561016b57600080fd5b5061018660048036038101906101819190611832565b6105e2565b604051610193919061200b565b60405180910390f35b3480156101a857600080fd5b506101b1610902565b6040516101be9190612041565b60405180910390f35b3480156101d357600080fd5b506101ee60048036038101906101e99190611832565b610928565b6040516101fb919061200b565b60405180910390f35b61021e6004803603810190610219919061186e565b610c4f565b60405161022b9190612026565b60405180910390f35b34801561024057600080fd5b5061025b600480360381019061025691906118e6565b610e2e565b60405161026d96959493929190611f81565b60405180910390f35b34801561028257600080fd5b5061028b610ea4565b005b34801561029957600080fd5b506102a2610f50565b6040516102af9190611f06565b60405180910390f35b3480156102c457600080fd5b506102cd610f76565b6040516102da919061225e565b60405180910390f35b3480156102ef57600080fd5b5061030a600480360381019061030591906118e6565b610f7c565b604051610317919061200b565b60405180910390f35b34801561032c57600080fd5b50610347600480360381019061034291906117a9565b610f9c565b604051610354919061200b565b60405180910390f35b6004805461036a90612422565b80601f016020809104026020016040519081016040528092919081815260200182805461039690612422565b80156103e35780601f106103b8576101008083540402835291602001916103e3565b820191906000526020600020905b8154815290600101906020018083116103c657829003601f168201915b505050505081565b6000600360009054906101000a900473ffffffffffffffffffffffffffffffffffffffff1673ffffffffffffffffffffffffffffffffffffffff163373ffffffffffffffffffffffffffffffffffffffff161461047d576040517f08c379a00000000000000000000000000000000000000000000000000000000081526004016104749061213e565b60405180910390fd5b60008442604051602001610492929190611eda565b60405160208183030381529060405280519060200120905060006040518060c001604052808773ffffffffffffffffffffffffffffffffffffffff16815260200160011515815260200186866104e891906122eb565b8152602001868152602001838152602001600115158152509050806001600084815260200190815260200160002060008201518160000160006101000a81548173ffffffffffffffffffffffffffffffffffffffff021916908373ffffffffffffffffffffffffffffffffffffffff16021790555060208201518160000160146101000a81548160ff02191690831515021790555060408201518160010155606082015181600201556080820151816003015560a08201518160040160006101000a81548160ff02191690831515021790555090505081925050509392505050565b60006020528060005260406000206000915090505481565b6000600360009054906101000a900473ffffffffffffffffffffffffffffffffffffffff1673ffffffffffffffffffffffffffffffffffffffff163373ffffffffffffffffffffffffffffffffffffffff1614610674576040517f08c379a000000000000000000000000000000000000000000000000000000000815260040161066b9061213e565b60405180910390fd5b600115156002600084815260200190815260200160002060009054906101000a900460ff161515146106db576040517f08c379a00000000000000000000000000000000000000000000000000000000081526004016106d29061217e565b60405180910390fd5b81600160008481526020019081526020016000206003015414610733576040517f08c379a000000000000000000000000000000000000000000000000000000000815260040161072a906120be565b60405180910390fd5b6001600083815260200190815260200160002060040160009054906101000a900460ff16610796576040517f08c379a000000000000000000000000000000000000000000000000000000000815260040161078d9061211e565b60405180910390fd5b8273ffffffffffffffffffffffffffffffffffffffff166001600084815260200190815260200160002060000160009054906101000a900473ffffffffffffffffffffffffffffffffffffffff1673ffffffffffffffffffffffffffffffffffffffff161461083a576040517f08c379a00000000000000000000000000000000000000000000000000000000081526004016108319061223e565b60405180910390fd5b6001600083815260200190815260200160002060000160149054906101000a900460ff1661089d576040517f08c379a0000000000000000000000000000000000000000000000000000000008152600401610894906120fe565b60405180910390fd5b60006002600084815260200190815260200160002060006101000a81548160ff02191690831515021790555060006001600084815260200190815260200160002060040160006101000a81548160ff0219169083151502179055506001905092915050565b600660009054906101000a900473ffffffffffffffffffffffffffffffffffffffff1681565b6000600360009054906101000a900473ffffffffffffffffffffffffffffffffffffffff1673ffffffffffffffffffffffffffffffffffffffff163373ffffffffffffffffffffffffffffffffffffffff16146109ba576040517f08c379a00000000000000000000000000000000000000000000000000000000081526004016109b19061213e565b60405180910390fd5b600115156002600084815260200190815260200160002060009054906101000a900460ff16151514610a21576040517f08c379a0000000000000000000000000000000000000000000000000000000008152600401610a189061217e565b60405180910390fd5b81600160008481526020019081526020016000206003015414610a79576040517f08c379a0000000000000000000000000000000000000000000000000000000008152600401610a70906120be565b60405180910390fd5b6001600083815260200190815260200160002060040160009054906101000a900460ff16610adc576040517f08c379a0000000000000000000000000000000000000000000000000000000008152600401610ad39061211e565b60405180910390fd5b8273ffffffffffffffffffffffffffffffffffffffff166001600084815260200190815260200160002060000160009054906101000a900473ffffffffffffffffffffffffffffffffffffffff1673ffffffffffffffffffffffffffffffffffffffff1614610b80576040517f08c379a0000000000000000000000000000000000000000000000000000000008152600401610b77906121fe565b60405180910390fd5b600015156001600084815260200190815260200160002060000160149054906101000a900460ff16151514610bea576040517f08c379a0000000000000000000000000000000000000000000000000000000008152600401610be19061207e565b60405180910390fd5b60006002600084815260200190815260200160002060006101000a81548160ff02191690831515021790555060006001600084815260200190815260200160002060040160006101000a81548160ff0219169083151502179055506001905092915050565b6000600360009054906101000a900473ffffffffffffffffffffffffffffffffffffffff1673ffffffffffffffffffffffffffffffffffffffff163373ffffffffffffffffffffffffffffffffffffffff1614610ce1576040517f08c379a0000000000000000000000000000000000000000000000000000000008152600401610cd89061213e565b60405180910390fd5b60008442604051602001610cf6929190611eda565b60405160208183030381529060405280519060200120905060006040518060c001604052808773ffffffffffffffffffffffffffffffffffffffff1681526020016000151581526020018686610d4c91906122eb565b8152602001868152602001838152602001600115158152509050806001600084815260200190815260200160002060008201518160000160006101000a81548173ffffffffffffffffffffffffffffffffffffffff021916908373ffffffffffffffffffffffffffffffffffffffff16021790555060208201518160000160146101000a81548160ff02191690831515021790555060408201518160010155606082015181600201556080820151816003015560a08201518160040160006101000a81548160ff02191690831515021790555090505081925050509392505050565b60016020528060005260406000206000915090508060000160009054906101000a900473ffffffffffffffffffffffffffffffffffffffff16908060000160149054906101000a900460ff16908060010154908060020154908060030154908060040160009054906101000a900460ff16905086565b600360009054906101000a900473ffffffffffffffffffffffffffffffffffffffff1673ffffffffffffffffffffffffffffffffffffffff163373ffffffffffffffffffffffffffffffffffffffff1614610f34576040517f08c379a0000000000000000000000000000000000000000000000000000000008152600401610f2b9061215e565b60405180910390fd5b600160056000828254610f479190612295565b92505081905550565b600360009054906101000a900473ffffffffffffffffffffffffffffffffffffffff1681565b60055481565b60026020528060005260406000206000915054906101000a900460ff1681565b6000600360009054906101000a900473ffffffffffffffffffffffffffffffffffffffff1673ffffffffffffffffffffffffffffffffffffffff163373ffffffffffffffffffffffffffffffffffffffff161461102e576040517f08c379a0000000000000000000000000000000000000000000000000000000008152600401611025906120de565b60405180910390fd5b6002600084815260200190815260200160002060009054906101000a900460ff16801561107857506002600083815260200190815260200160002060009054906101000a900460ff165b6110b7576040517f08c379a00000000000000000000000000000000000000000000000000000000081526004016110ae9061219e565b60405180910390fd5b6000600160008581526020019081526020016000206040518060c00160405290816000820160009054906101000a900473ffffffffffffffffffffffffffffffffffffffff1673ffffffffffffffffffffffffffffffffffffffff1673ffffffffffffffffffffffffffffffffffffffff1681526020016000820160149054906101000a900460ff161515151581526020016001820154815260200160028201548152602001600382015481526020016004820160009054906101000a900460ff16151515158152505090506000600160008581526020019081526020016000206040518060c00160405290816000820160009054906101000a900473ffffffffffffffffffffffffffffffffffffffff1673ffffffffffffffffffffffffffffffffffffffff1673ffffffffffffffffffffffffffffffffffffffff1681526020016000820160149054906101000a900460ff161515151581526020016001820154815260200160028201548152602001600382015481526020016004820160009054906101000a900460ff161515151581525050905081604001518611611295576040517f08c379a000000000000000000000000000000000000000000000000000000000815260040161128c906121de565b60405180910390fd5b806040015186106112db576040517f08c379a00000000000000000000000000000000000000000000000000000000081526004016112d29061221e565b60405180910390fd5b866000808a73ffffffffffffffffffffffffffffffffffffffff1673ffffffffffffffffffffffffffffffffffffffff16815260200190815260200160002054101561135c576040517f08c379a00000000000000000000000000000000000000000000000000000000081526004016113539061209e565b60405180910390fd5b85600660009054906101000a900473ffffffffffffffffffffffffffffffffffffffff1673ffffffffffffffffffffffffffffffffffffffff1663dd62ed3e8b306040518363ffffffff1660e01b81526004016113ba929190611f21565b60206040518083038186803b1580156113d257600080fd5b505afa1580156113e6573d6000803e3d6000fd5b505050506040513d601f19601f8201168201806040525081019061140a919061190f565b101561144b576040517f08c379a0000000000000000000000000000000000000000000000000000000008152600401611442906121be565b60405180910390fd5b600660009054906101000a900473ffffffffffffffffffffffffffffffffffffffff1673ffffffffffffffffffffffffffffffffffffffff166323b872dd3330896040518463ffffffff1660e01b81526004016114aa93929190611f4a565b602060405180830381600087803b1580156114c457600080fd5b505af11580156114d8573d6000803e3d6000fd5b505050506040513d601f19601f820116820180604052508101906114fc91906118bd565b50600660009054906101000a900473ffffffffffffffffffffffffffffffffffffffff1673ffffffffffffffffffffffffffffffffffffffff1663a9059cbb89886040518363ffffffff1660e01b815260040161155a929190611fe2565b602060405180830381600087803b15801561157457600080fd5b505af1158015611588573d6000803e3d6000fd5b505050506040513d601f19601f820116820180604052508101906115ac91906118bd565b50866000808a73ffffffffffffffffffffffffffffffffffffffff1673ffffffffffffffffffffffffffffffffffffffff16815260200190815260200160002060008282546115fb9190612345565b92505081905550866000808b73ffffffffffffffffffffffffffffffffffffffff1673ffffffffffffffffffffffffffffffffffffffff16815260200190815260200160002060008282546116509190612295565b92505081905550600660009054906101000a900473ffffffffffffffffffffffffffffffffffffffff1673ffffffffffffffffffffffffffffffffffffffff1663a9059cbb89886040518363ffffffff1660e01b81526004016116b4929190611fe2565b602060405180830381600087803b1580156116ce57600080fd5b505af11580156116e2573d6000803e3d6000fd5b505050506040513d601f19601f8201168201806040525081019061170691906118bd565b506001925050509695505050505050565b600081359050611726816124fe565b92915050565b60008151905061173b81612515565b92915050565b6000813590506117508161252c565b92915050565b60008135905061176581612543565b92915050565b60008151905061177a81612543565b92915050565b60006020828403121561179257600080fd5b60006117a084828501611717565b91505092915050565b60008060008060008060c087890312156117c257600080fd5b60006117d089828a01611717565b96505060206117e189828a01611717565b95505060406117f289828a01611756565b945050606061180389828a01611756565b935050608061181489828a01611741565b92505060a061182589828a01611741565b9150509295509295509295565b6000806040838503121561184557600080fd5b600061185385828601611717565b925050602061186485828601611741565b9150509250929050565b60008060006060848603121561188357600080fd5b600061189186828701611717565b93505060206118a286828701611756565b92505060406118b386828701611756565b9150509250925092565b6000602082840312156118cf57600080fd5b60006118dd8482850161172c565b91505092915050565b6000602082840312156118f857600080fd5b600061190684828501611741565b91505092915050565b60006020828403121561192157600080fd5b600061192f8482850161176b565b91505092915050565b61194181612379565b82525050565b61195861195382612379565b612454565b82525050565b6119678161238b565b82525050565b61197681612397565b82525050565b611985816123cb565b82525050565b600061199682612279565b6119a08185612284565b93506119b08185602086016123ef565b6119b9816124e0565b840191505092915050565b60006119d1601a83612284565b91507f546865206f726465722069732061206275796572206f726465720000000000006000830152602082019050919050565b6000611a11602483612284565b91507f5468652073656c6c657220646f65736e2774206861766520656e6f756768207360008301527f68617265000000000000000000000000000000000000000000000000000000006020830152604082019050919050565b6000611a77601f83612284565b91507f546865206f726465722068617320646966666572656e742072656365697074006000830152602082019050919050565b6000611ab7602683612284565b91507f6f6e6c79206f7267616e697a6174696f6e2063616e20636f6e6669726d20746860008301527f65206465616c00000000000000000000000000000000000000000000000000006020830152604082019050919050565b6000611b1d601b83612284565b91507f546865206f7264657220697320612073656c6c6572206f7264657200000000006000830152602082019050919050565b6000611b5d602c83612284565b91507f546865206f72646572206973206e6f742076616c69642e20497320616c72656160008301527f64792063616e63656c6c656400000000000000000000000000000000000000006020830152604082019050919050565b6000611bc3602f83612284565b91507f6f6e6c7920746865206d61726b657420636f6e74726163742063616e2063616c60008301527f6c20746869732066756e6374696f6e00000000000000000000000000000000006020830152604082019050919050565b6000611c29602c83612284565b91507f6f6e6c79206f7267616e697a6174696f6e2063616e2063616c6c20746865206c60008301527f696b652066756e6374696f6e00000000000000000000000000000000000000006020830152604082019050919050565b6000611c8f601783612284565b91507f546865206f7264657220646f65736e27742065786973740000000000000000006000830152602082019050919050565b6000611ccf601383612284565b91507f526563656970747320697320696e76616c6964000000000000000000000000006000830152602082019050919050565b6000611d0f602783612284565b91507f54686520627579657220646f65736e2774206861766520656e6f75676820616c60008301527f6c6f77616e6365000000000000000000000000000000000000000000000000006020830152604082019050919050565b6000611d75602483612284565b91507f546865207072696365206973206c657373207468616e207468652061736b207060008301527f72696365000000000000000000000000000000000000000000000000000000006020830152604082019050919050565b6000611ddb601883612284565b91507f53656c6c65722061646472657373206d69736d736174636800000000000000006000830152602082019050919050565b6000611e1b602883612284565b91507f5468652070726963652069732067726561746572207468616e2074686520626960008301527f6420616d6f756e740000000000000000000000000000000000000000000000006020830152604082019050919050565b6000611e81601783612284565b91507f42757965722061646472657373206d69736d73617463680000000000000000006000830152602082019050919050565b611ebd816123c1565b82525050565b611ed4611ecf826123c1565b612478565b82525050565b6000611ee68285611947565b601482019150611ef68284611ec3565b6020820191508190509392505050565b6000602082019050611f1b6000830184611938565b92915050565b6000604082019050611f366000830185611938565b611f436020830184611938565b9392505050565b6000606082019050611f5f6000830186611938565b611f6c6020830185611938565b611f796040830184611eb4565b949350505050565b600060c082019050611f966000830189611938565b611fa3602083018861195e565b611fb06040830187611eb4565b611fbd6060830186611eb4565b611fca608083018561196d565b611fd760a083018461195e565b979650505050505050565b6000604082019050611ff76000830185611938565b6120046020830184611eb4565b9392505050565b6000602082019050612020600083018461195e565b92915050565b600060208201905061203b600083018461196d565b92915050565b6000602082019050612056600083018461197c565b92915050565b60006020820190508181036000830152612076818461198b565b905092915050565b60006020820190508181036000830152612097816119c4565b9050919050565b600060208201905081810360008301526120b781611a04565b9050919050565b600060208201905081810360008301526120d781611a6a565b9050919050565b600060208201905081810360008301526120f781611aaa565b9050919050565b6000602082019050818103600083015261211781611b10565b9050919050565b6000602082019050818103600083015261213781611b50565b9050919050565b6000602082019050818103600083015261215781611bb6565b9050919050565b6000602082019050818103600083015261217781611c1c565b9050919050565b6000602082019050818103600083015261219781611c82565b9050919050565b600060208201905081810360008301526121b781611cc2565b9050919050565b600060208201905081810360008301526121d781611d02565b9050919050565b600060208201905081810360008301526121f781611d68565b9050919050565b6000602082019050818103600083015261221781611dce565b9050919050565b6000602082019050818103600083015261223781611e0e565b9050919050565b6000602082019050818103600083015261225781611e74565b9050919050565b60006020820190506122736000830184611eb4565b92915050565b600081519050919050565b600082825260208201905092915050565b60006122a0826123c1565b91506122ab836123c1565b9250827fffffffffffffffffffffffffffffffffffffffffffffffffffffffffffffffff038211156122e0576122df612482565b5b828201905092915050565b60006122f6826123c1565b9150612301836123c1565b9250817fffffffffffffffffffffffffffffffffffffffffffffffffffffffffffffffff048311821515161561233a57612339612482565b5b828202905092915050565b6000612350826123c1565b915061235b836123c1565b92508282101561236e5761236d612482565b5b828203905092915050565b6000612384826123a1565b9050919050565b60008115159050919050565b6000819050919050565b600073ffffffffffffffffffffffffffffffffffffffff82169050919050565b6000819050919050565b60006123d6826123dd565b9050919050565b60006123e8826123a1565b9050919050565b60005b8381101561240d5780820151818401526020810190506123f2565b8381111561241c576000848401525b50505050565b6000600282049050600182168061243a57607f821691505b6020821081141561244e5761244d6124b1565b5b50919050565b600061245f82612466565b9050919050565b6000612471826124f1565b9050919050565b6000819050919050565b7f4e487b7100000000000000000000000000000000000000000000000000000000600052601160045260246000fd5b7f4e487b7100000000000000000000000000000000000000000000000000000000600052602260045260246000fd5b6000601f19601f8301169050919050565b60008160601b9050919050565b61250781612379565b811461251257600080fd5b50565b61251e8161238b565b811461252957600080fd5b50565b61253581612397565b811461254057600080fd5b50565b61254c816123c1565b811461255757600080fd5b5056fea2646970667358221220b1c3a0f7502f314a7aa0683b92471dcfa82f27f165a9cd6050f03df128cc17ba64736f6c63430008000033",
  "immutableReferences": {},
  "source": "// SPDX-License-Identifier: MIT\r\npragma solidity >=0.4.22 <0.9.0;\r\nimport \"@openzeppelin/contracts/token/ERC20/ERC20.sol\";\r\n\r\n\r\n//minimize the number of contract calls for single transaction\r\n//maximize the number of transaction\r\ncontract Page{\r\n\r\n    struct Order{\r\n        address customer;\r\n        bool purchase;\r\n        uint amount;\r\n        uint quantity;\r\n        bytes32 receipt;\r\n        bool valid;\r\n    }  \r\n\r\n    mapping(address => uint) public share;\r\n    mapping(bytes32 => Order)  public orders;\r\n    mapping(bytes32 => bool)  public receipts;\r\n    address  public org;\r\n    string  public name;\r\n    uint  public likes;\r\n    ERC20  public usdc;\r\n\r\n    constructor(string memory _name, uint nstocks, address owner, address _token) {\r\n        name=_name;\r\n        org=msg.sender;\r\n        share[owner]=nstocks;\r\n        likes=0;\r\n        usdc = ERC20(_token);\r\n    }\r\n\r\n    function like() public {\r\n        require(msg.sender==org, \"only organization can call the like function\");\r\n        likes += 1;\r\n    }\r\n    \r\n\r\n    function makeDeal(address buyer, address seller, uint nstocks, uint amount, bytes32 ask_receipt, bytes32 bid_receipt) public returns(bool) {\r\n        require(msg.sender==org, \"only organization can confirm the deal\");\r\n        require(receipts[ask_receipt] && receipts[bid_receipt], \"Receipts is invalid\");\r\n        Order memory ask_order=orders[ask_receipt];\r\n        Order memory bid_order = orders[bid_receipt];\r\n        require(amount > ask_order.amount, \"The price is less than the ask price\");\r\n        require(amount < bid_order.amount, \"The price is greater than the bid amount\");\r\n        require(share[seller] >= nstocks, \"The seller doesn't have enough share\");\r\n        require(usdc.allowance(buyer, address(this)) >= amount, \"The buyer doesn't have enough allowance\");\r\n        usdc.transferFrom(msg.sender, address(this), amount);\r\n        usdc.transfer(seller, amount);\r\n\r\n\r\n        share[seller] -= nstocks;\r\n        share[buyer] += nstocks;\r\n        usdc.transfer(seller, amount);\r\n\r\n\r\n        return true;\r\n    }\r\n\r\n    function bid(address buyer, uint nstocks, uint price) payable public returns(bytes32){\r\n        require(msg.sender==org, \"only the market contract can call this function\");\r\n        bytes32 receipt = keccak256(abi.encodePacked(buyer, block.timestamp));\r\n        Order memory order = Order(buyer, true, price*nstocks, nstocks, receipt, true);\r\n        orders[receipt]=order;\r\n        return receipt;\r\n    }\r\n\r\n    function ask(address seller, uint nstocks, uint price) public payable returns(bytes32){\r\n        require(msg.sender==org, \"only the market contract can call this function\");\r\n        bytes32 receipt = keccak256(abi.encodePacked(seller, block.timestamp));\r\n        Order memory order = Order(seller, false, price*nstocks, nstocks, receipt, true);\r\n        orders[receipt]=order;\r\n        return receipt;\r\n    }\r\n\r\n    function cancelBid(address buyer, bytes32 receipt_addr) public returns(bool){\r\n        require(msg.sender==org, \"only the market contract can call this function\");\r\n        require(receipts[receipt_addr]==true, \"The order doesn't exist\");\r\n        require(orders[receipt_addr].receipt == receipt_addr, \"The order has different receipt\");\r\n        require(orders[receipt_addr].valid, \"The order is not valid. Is already cancelled\");\r\n        require(orders[receipt_addr].customer==buyer, \"Buyer address mismsatch\");\r\n        require(orders[receipt_addr].purchase, \"The order is a seller order\");\r\n        receipts[receipt_addr]=false;\r\n        orders[receipt_addr].valid=false;\r\n        return true;\r\n    }\r\n\r\n    function cancelAsk(address seller, bytes32 receipt_addr) public returns(bool){\r\n        require(msg.sender==org, \"only the market contract can call this function\");\r\n        require(receipts[receipt_addr]==true, \"The order doesn't exist\");\r\n        require(orders[receipt_addr].receipt == receipt_addr, \"The order has different receipt\");\r\n        require(orders[receipt_addr].valid, \"The order is not valid. Is already cancelled\");\r\n        require(orders[receipt_addr].customer==seller, \"Seller address mismsatch\");\r\n        require(orders[receipt_addr].purchase==false, \"The order is a buyer order\");\r\n        receipts[receipt_addr]=false;\r\n        orders[receipt_addr].valid=false;\r\n        return true;\r\n    }\r\n\r\n    \r\n}\r\n\r\ncontract Market{\r\n\r\n    address[] public pages;\r\n    mapping(address => uint) public rem_reactions;\r\n    mapping(address => uint) public subscribers;\r\n    address public org;\r\n    address public token;\r\n    uint public subscription_fee;\r\n    ERC20 public usdc;\r\n\r\n    constructor(uint _fee, address _token){\r\n        org = msg.sender;\r\n        subscription_fee = _fee;\r\n        token=_token;\r\n        usdc=ERC20(_token);\r\n    }\r\n\r\n\r\n    function deposit(uint256 amount) public returns (bool) {\r\n        uint256 allowance = usdc.allowance(msg.sender, address(this));\r\n        require(allowance >= amount, \"Allowance is not adequete\");\r\n        usdc.transferFrom(msg.sender, address(this), amount);\r\n        return true;\r\n    }\r\n\r\n    function ipo(string memory _name, uint nstocks) public returns(address) {\r\n        Page page = new Page(_name, nstocks, msg.sender, token);\r\n        pages.push(address(page));\r\n        return address(page);\r\n    }\r\n\r\n    function subscribe(uint validity) public {\r\n        deposit(validity*subscription_fee);\r\n        subscribers[msg.sender]=block.timestamp + validity * 1 days;\r\n    }\r\n\r\n    function isSubscriber() public returns(uint){\r\n        return subscribers[msg.sender];\r\n    }\r\n\r\n    function like(address page_addr) public {\r\n        address user = msg.sender;\r\n        require(subscribers[user]!=0, \"The user has not subscribered\");\r\n        require(rem_reactions[user] > 0, \"The user has no reactions left\");\r\n        Page page = Page(page_addr);\r\n        page.like();\r\n    }\r\n\r\n    function bid(address page_addr, uint nstocks, uint price) public returns(bytes32) {\r\n        Page page = Page(page_addr);\r\n        require(usdc.allowance(msg.sender, page_addr) > nstocks*price, \"Not enough allowance\");\r\n        return page.bid(msg.sender, nstocks, price);\r\n    }\r\n\r\n    function ask(address page_addr, uint nstocks, uint price) public returns(bytes32){\r\n        Page page = Page(page_addr);\r\n        return page.ask(msg.sender, nstocks, price);\r\n    }\r\n\r\n    function cancelBid(address page_addr, bytes32 receipt) public returns (bool){\r\n        Page page = Page(page_addr);\r\n        page.cancelBid(msg.sender, receipt);\r\n        return true;\r\n    }\r\n\r\n    function cancelAsk(address page_addr, bytes32 receipt) public returns (bool){\r\n        Page page = Page(page_addr);\r\n        page.cancelAsk(msg.sender, receipt);\r\n        return true;\r\n    }\r\n\r\n    function makeDeal(address page_addr, address buyer, address seller, uint nstocks, uint amount, bytes32 ask_receipt, bytes32 bid_receipt) public {\r\n        require(msg.sender==org, \"only organization can confirm the deal\");\r\n        Page page = Page(page_addr);\r\n        page.makeDeal(buyer, seller, nstocks, amount, ask_receipt, bid_receipt);\r\n    }\r\n\r\n}",
  "sourcePath": "D:/projects/hackthemountains/Xcalate/SmartContracts/contracts/Page.sol",
  "compiler": {
    "name": "solc",
    "version": "0.8.0+commit.c7dfd78e.Emscripten.clang"
  },
  "schemaVersion": "3.4.1",
  "updatedAt": "2021-06-27T05:06:42.792Z",
  "networkType": "ethereum",
  "devdoc": {
    "kind": "dev",
    "methods": {},
    "version": 1
  },
  "userdoc": {
    "kind": "user",
    "methods": {},
    "version": 1
  }
}