{
  "contractName": "Page",
  "abi": [
    {
      "inputs": [
        {
          "internalType": "string",
          "name": "_name",
          "type": "string"
        },
        {
          "internalType": "uint256",
          "name": "nstocks",
          "type": "uint256"
        },
        {
          "internalType": "address",
          "name": "owner",
          "type": "address"
        },
        {
          "internalType": "address",
          "name": "_token",
          "type": "address"
        }
      ],
      "stateMutability": "nonpayable",
      "type": "constructor"
    },
    {
      "inputs": [],
      "name": "like",
      "outputs": [],
      "stateMutability": "nonpayable",
      "type": "function"
    },
    {
      "inputs": [
        {
          "internalType": "address",
          "name": "buyer",
          "type": "address"
        },
        {
          "internalType": "address",
          "name": "seller",
          "type": "address"
        },
        {
          "internalType": "uint256",
          "name": "nstocks",
          "type": "uint256"
        },
        {
          "internalType": "uint256",
          "name": "amount",
          "type": "uint256"
        },
        {
          "internalType": "bytes32",
          "name": "ask_receipt",
          "type": "bytes32"
        },
        {
          "internalType": "bytes32",
          "name": "bid_receipt",
          "type": "bytes32"
        }
      ],
      "name": "makeDeal",
      "outputs": [
        {
          "internalType": "bool",
          "name": "",
          "type": "bool"
        }
      ],
      "stateMutability": "nonpayable",
      "type": "function"
    },
    {
      "inputs": [
        {
          "internalType": "address",
          "name": "buyer",
          "type": "address"
        },
        {
          "internalType": "uint256",
          "name": "nstocks",
          "type": "uint256"
        },
        {
          "internalType": "uint256",
          "name": "price",
          "type": "uint256"
        }
      ],
      "name": "bid",
      "outputs": [
        {
          "internalType": "bytes32",
          "name": "",
          "type": "bytes32"
        }
      ],
      "stateMutability": "payable",
      "type": "function",
      "payable": true
    },
    {
      "inputs": [
        {
          "internalType": "address",
          "name": "seller",
          "type": "address"
        },
        {
          "internalType": "uint256",
          "name": "nstocks",
          "type": "uint256"
        },
        {
          "internalType": "uint256",
          "name": "price",
          "type": "uint256"
        }
      ],
      "name": "ask",
      "outputs": [
        {
          "internalType": "bytes32",
          "name": "",
          "type": "bytes32"
        }
      ],
      "stateMutability": "payable",
      "type": "function",
      "payable": true
    },
    {
      "inputs": [
        {
          "internalType": "address",
          "name": "buyer",
          "type": "address"
        },
        {
          "internalType": "bytes32",
          "name": "receipt_addr",
          "type": "bytes32"
        }
      ],
      "name": "cancelBid",
      "outputs": [
        {
          "internalType": "bool",
          "name": "",
          "type": "bool"
        }
      ],
      "stateMutability": "nonpayable",
      "type": "function"
    },
    {
      "inputs": [
        {
          "internalType": "address",
          "name": "seller",
          "type": "address"
        },
        {
          "internalType": "bytes32",
          "name": "receipt_addr",
          "type": "bytes32"
        }
      ],
      "name": "cancelAsk",
      "outputs": [
        {
          "internalType": "bool",
          "name": "",
          "type": "bool"
        }
      ],
      "stateMutability": "nonpayable",
      "type": "function"
    }
  ],
  "bytecode": "0x60806040523480156200001157600080fd5b506040516200249a3803806200249a833981810160405281019062000037919062000277565b83600490805190602001906200004f92919062000127565b5033600360006101000a81548173ffffffffffffffffffffffffffffffffffffffff021916908373ffffffffffffffffffffffffffffffffffffffff160217905550826000808473ffffffffffffffffffffffffffffffffffffffff1673ffffffffffffffffffffffffffffffffffffffff16815260200190815260200160002081905550600060058190555080600660006101000a81548173ffffffffffffffffffffffffffffffffffffffff021916908373ffffffffffffffffffffffffffffffffffffffff160217905550505050506200049f565b8280546200013590620003d7565b90600052602060002090601f016020900481019282620001595760008555620001a5565b82601f106200017457805160ff1916838001178555620001a5565b82800160010185558215620001a5579182015b82811115620001a457825182559160200191906001019062000187565b5b509050620001b49190620001b8565b5090565b5b80821115620001d3576000816000905550600101620001b9565b5090565b6000620001ee620001e88462000330565b620002fc565b9050828152602081018484840111156200020757600080fd5b62000214848285620003a1565b509392505050565b6000815190506200022d816200046b565b92915050565b600082601f8301126200024557600080fd5b815162000257848260208601620001d7565b91505092915050565b600081519050620002718162000485565b92915050565b600080600080608085870312156200028e57600080fd5b600085015167ffffffffffffffff811115620002a957600080fd5b620002b78782880162000233565b9450506020620002ca8782880162000260565b9350506040620002dd878288016200021c565b9250506060620002f0878288016200021c565b91505092959194509250565b6000604051905081810181811067ffffffffffffffff821117156200032657620003256200043c565b5b8060405250919050565b600067ffffffffffffffff8211156200034e576200034d6200043c565b5b601f19601f8301169050602081019050919050565b6000620003708262000377565b9050919050565b600073ffffffffffffffffffffffffffffffffffffffff82169050919050565b6000819050919050565b60005b83811015620003c1578082015181840152602081019050620003a4565b83811115620003d1576000848401525b50505050565b60006002820490506001821680620003f057607f821691505b602082108114156200040757620004066200040d565b5b50919050565b7f4e487b7100000000000000000000000000000000000000000000000000000000600052602260045260246000fd5b7f4e487b7100000000000000000000000000000000000000000000000000000000600052604160045260246000fd5b620004768162000363565b81146200048257600080fd5b50565b620004908162000397565b81146200049c57600080fd5b50565b611feb80620004af6000396000f3fe6080604052600436106100555760003560e01c80630f41ba4b1461005a5780632525f5c11461008a57806377b27207146100c757806390edf06514610104578063a523b88a14610134578063ff2d27bd1461014b575b600080fd5b610074600480360381019061006f91906114e2565b610188565b6040516100819190611bad565b60405180910390f35b34801561009657600080fd5b506100b160048036038101906100ac91906114a6565b610367565b6040516100be9190611b92565b60405180910390f35b3480156100d357600080fd5b506100ee60048036038101906100e991906114a6565b610687565b6040516100fb9190611b92565b60405180910390f35b61011e600480360381019061011991906114e2565b6109ae565b60405161012b9190611bad565b60405180910390f35b34801561014057600080fd5b50610149610b8d565b005b34801561015757600080fd5b50610172600480360381019061016d919061141d565b610c39565b60405161017f9190611b92565b60405180910390f35b6000600360009054906101000a900473ffffffffffffffffffffffffffffffffffffffff1673ffffffffffffffffffffffffffffffffffffffff163373ffffffffffffffffffffffffffffffffffffffff161461021a576040517f08c379a000000000000000000000000000000000000000000000000000000000815260040161021190611c88565b60405180910390fd5b6000844260405160200161022f929190611add565b60405160208183030381529060405280519060200120905060006040518060c001604052808773ffffffffffffffffffffffffffffffffffffffff16815260200160011515815260200186866102859190611e0f565b8152602001868152602001838152602001600115158152509050806001600084815260200190815260200160002060008201518160000160006101000a81548173ffffffffffffffffffffffffffffffffffffffff021916908373ffffffffffffffffffffffffffffffffffffffff16021790555060208201518160000160146101000a81548160ff02191690831515021790555060408201518160010155606082015181600201556080820151816003015560a08201518160040160006101000a81548160ff02191690831515021790555090505081925050509392505050565b6000600360009054906101000a900473ffffffffffffffffffffffffffffffffffffffff1673ffffffffffffffffffffffffffffffffffffffff163373ffffffffffffffffffffffffffffffffffffffff16146103f9576040517f08c379a00000000000000000000000000000000000000000000000000000000081526004016103f090611c88565b60405180910390fd5b600115156002600084815260200190815260200160002060009054906101000a900460ff16151514610460576040517f08c379a000000000000000000000000000000000000000000000000000000000815260040161045790611cc8565b60405180910390fd5b816001600084815260200190815260200160002060030154146104b8576040517f08c379a00000000000000000000000000000000000000000000000000000000081526004016104af90611c08565b60405180910390fd5b6001600083815260200190815260200160002060040160009054906101000a900460ff1661051b576040517f08c379a000000000000000000000000000000000000000000000000000000000815260040161051290611c68565b60405180910390fd5b8273ffffffffffffffffffffffffffffffffffffffff166001600084815260200190815260200160002060000160009054906101000a900473ffffffffffffffffffffffffffffffffffffffff1673ffffffffffffffffffffffffffffffffffffffff16146105bf576040517f08c379a00000000000000000000000000000000000000000000000000000000081526004016105b690611d88565b60405180910390fd5b6001600083815260200190815260200160002060000160149054906101000a900460ff16610622576040517f08c379a000000000000000000000000000000000000000000000000000000000815260040161061990611c48565b60405180910390fd5b60006002600084815260200190815260200160002060006101000a81548160ff02191690831515021790555060006001600084815260200190815260200160002060040160006101000a81548160ff0219169083151502179055506001905092915050565b6000600360009054906101000a900473ffffffffffffffffffffffffffffffffffffffff1673ffffffffffffffffffffffffffffffffffffffff163373ffffffffffffffffffffffffffffffffffffffff1614610719576040517f08c379a000000000000000000000000000000000000000000000000000000000815260040161071090611c88565b60405180910390fd5b600115156002600084815260200190815260200160002060009054906101000a900460ff16151514610780576040517f08c379a000000000000000000000000000000000000000000000000000000000815260040161077790611cc8565b60405180910390fd5b816001600084815260200190815260200160002060030154146107d8576040517f08c379a00000000000000000000000000000000000000000000000000000000081526004016107cf90611c08565b60405180910390fd5b6001600083815260200190815260200160002060040160009054906101000a900460ff1661083b576040517f08c379a000000000000000000000000000000000000000000000000000000000815260040161083290611c68565b60405180910390fd5b8273ffffffffffffffffffffffffffffffffffffffff166001600084815260200190815260200160002060000160009054906101000a900473ffffffffffffffffffffffffffffffffffffffff1673ffffffffffffffffffffffffffffffffffffffff16146108df576040517f08c379a00000000000000000000000000000000000000000000000000000000081526004016108d690611d48565b60405180910390fd5b600015156001600084815260200190815260200160002060000160149054906101000a900460ff16151514610949576040517f08c379a000000000000000000000000000000000000000000000000000000000815260040161094090611bc8565b60405180910390fd5b60006002600084815260200190815260200160002060006101000a81548160ff02191690831515021790555060006001600084815260200190815260200160002060040160006101000a81548160ff0219169083151502179055506001905092915050565b6000600360009054906101000a900473ffffffffffffffffffffffffffffffffffffffff1673ffffffffffffffffffffffffffffffffffffffff163373ffffffffffffffffffffffffffffffffffffffff1614610a40576040517f08c379a0000000000000000000000000000000000000000000000000000000008152600401610a3790611c88565b60405180910390fd5b60008442604051602001610a55929190611add565b60405160208183030381529060405280519060200120905060006040518060c001604052808773ffffffffffffffffffffffffffffffffffffffff1681526020016000151581526020018686610aab9190611e0f565b8152602001868152602001838152602001600115158152509050806001600084815260200190815260200160002060008201518160000160006101000a81548173ffffffffffffffffffffffffffffffffffffffff021916908373ffffffffffffffffffffffffffffffffffffffff16021790555060208201518160000160146101000a81548160ff02191690831515021790555060408201518160010155606082015181600201556080820151816003015560a08201518160040160006101000a81548160ff02191690831515021790555090505081925050509392505050565b600360009054906101000a900473ffffffffffffffffffffffffffffffffffffffff1673ffffffffffffffffffffffffffffffffffffffff163373ffffffffffffffffffffffffffffffffffffffff1614610c1d576040517f08c379a0000000000000000000000000000000000000000000000000000000008152600401610c1490611ca8565b60405180910390fd5b600160056000828254610c309190611db9565b92505081905550565b6000600360009054906101000a900473ffffffffffffffffffffffffffffffffffffffff1673ffffffffffffffffffffffffffffffffffffffff163373ffffffffffffffffffffffffffffffffffffffff1614610ccb576040517f08c379a0000000000000000000000000000000000000000000000000000000008152600401610cc290611c28565b60405180910390fd5b6002600084815260200190815260200160002060009054906101000a900460ff168015610d1557506002600083815260200190815260200160002060009054906101000a900460ff165b610d54576040517f08c379a0000000000000000000000000000000000000000000000000000000008152600401610d4b90611ce8565b60405180910390fd5b6000600160008581526020019081526020016000206040518060c00160405290816000820160009054906101000a900473ffffffffffffffffffffffffffffffffffffffff1673ffffffffffffffffffffffffffffffffffffffff1673ffffffffffffffffffffffffffffffffffffffff1681526020016000820160149054906101000a900460ff161515151581526020016001820154815260200160028201548152602001600382015481526020016004820160009054906101000a900460ff16151515158152505090506000600160008581526020019081526020016000206040518060c00160405290816000820160009054906101000a900473ffffffffffffffffffffffffffffffffffffffff1673ffffffffffffffffffffffffffffffffffffffff1673ffffffffffffffffffffffffffffffffffffffff1681526020016000820160149054906101000a900460ff161515151581526020016001820154815260200160028201548152602001600382015481526020016004820160009054906101000a900460ff161515151581525050905081604001518611610f32576040517f08c379a0000000000000000000000000000000000000000000000000000000008152600401610f2990611d28565b60405180910390fd5b80604001518610610f78576040517f08c379a0000000000000000000000000000000000000000000000000000000008152600401610f6f90611d68565b60405180910390fd5b866000808a73ffffffffffffffffffffffffffffffffffffffff1673ffffffffffffffffffffffffffffffffffffffff168152602001908152602001600020541015610ff9576040517f08c379a0000000000000000000000000000000000000000000000000000000008152600401610ff090611be8565b60405180910390fd5b85600660009054906101000a900473ffffffffffffffffffffffffffffffffffffffff1673ffffffffffffffffffffffffffffffffffffffff1663dd62ed3e8b306040518363ffffffff1660e01b8152600401611057929190611b09565b60206040518083038186803b15801561106f57600080fd5b505afa158015611083573d6000803e3d6000fd5b505050506040513d601f19601f820116820180604052508101906110a7919061155a565b10156110e8576040517f08c379a00000000000000000000000000000000000000000000000000000000081526004016110df90611d08565b60405180910390fd5b600660009054906101000a900473ffffffffffffffffffffffffffffffffffffffff1673ffffffffffffffffffffffffffffffffffffffff166323b872dd3330896040518463ffffffff1660e01b815260040161114793929190611b32565b602060405180830381600087803b15801561116157600080fd5b505af1158015611175573d6000803e3d6000fd5b505050506040513d601f19601f820116820180604052508101906111999190611531565b50600660009054906101000a900473ffffffffffffffffffffffffffffffffffffffff1673ffffffffffffffffffffffffffffffffffffffff1663a9059cbb89886040518363ffffffff1660e01b81526004016111f7929190611b69565b602060405180830381600087803b15801561121157600080fd5b505af1158015611225573d6000803e3d6000fd5b505050506040513d601f19601f820116820180604052508101906112499190611531565b50866000808a73ffffffffffffffffffffffffffffffffffffffff1673ffffffffffffffffffffffffffffffffffffffff16815260200190815260200160002060008282546112989190611e69565b92505081905550866000808b73ffffffffffffffffffffffffffffffffffffffff1673ffffffffffffffffffffffffffffffffffffffff16815260200190815260200160002060008282546112ed9190611db9565b92505081905550600660009054906101000a900473ffffffffffffffffffffffffffffffffffffffff1673ffffffffffffffffffffffffffffffffffffffff1663a9059cbb89886040518363ffffffff1660e01b8152600401611351929190611b69565b602060405180830381600087803b15801561136b57600080fd5b505af115801561137f573d6000803e3d6000fd5b505050506040513d601f19601f820116820180604052508101906113a39190611531565b506001925050509695505050505050565b6000813590506113c381611f59565b92915050565b6000815190506113d881611f70565b92915050565b6000813590506113ed81611f87565b92915050565b60008135905061140281611f9e565b92915050565b60008151905061141781611f9e565b92915050565b60008060008060008060c0878903121561143657600080fd5b600061144489828a016113b4565b965050602061145589828a016113b4565b955050604061146689828a016113f3565b945050606061147789828a016113f3565b935050608061148889828a016113de565b92505060a061149989828a016113de565b9150509295509295509295565b600080604083850312156114b957600080fd5b60006114c7858286016113b4565b92505060206114d8858286016113de565b9150509250929050565b6000806000606084860312156114f757600080fd5b6000611505868287016113b4565b9350506020611516868287016113f3565b9250506040611527868287016113f3565b9150509250925092565b60006020828403121561154357600080fd5b6000611551848285016113c9565b91505092915050565b60006020828403121561156c57600080fd5b600061157a84828501611408565b91505092915050565b61158c81611e9d565b82525050565b6115a361159e82611e9d565b611eef565b82525050565b6115b281611eaf565b82525050565b6115c181611ebb565b82525050565b60006115d4601a83611da8565b91507f546865206f726465722069732061206275796572206f726465720000000000006000830152602082019050919050565b6000611614602483611da8565b91507f5468652073656c6c657220646f65736e2774206861766520656e6f756768207360008301527f68617265000000000000000000000000000000000000000000000000000000006020830152604082019050919050565b600061167a601f83611da8565b91507f546865206f726465722068617320646966666572656e742072656365697074006000830152602082019050919050565b60006116ba602683611da8565b91507f6f6e6c79206f7267616e697a6174696f6e2063616e20636f6e6669726d20746860008301527f65206465616c00000000000000000000000000000000000000000000000000006020830152604082019050919050565b6000611720601b83611da8565b91507f546865206f7264657220697320612073656c6c6572206f7264657200000000006000830152602082019050919050565b6000611760602c83611da8565b91507f546865206f72646572206973206e6f742076616c69642e20497320616c72656160008301527f64792063616e63656c6c656400000000000000000000000000000000000000006020830152604082019050919050565b60006117c6602f83611da8565b91507f6f6e6c7920746865206d61726b657420636f6e74726163742063616e2063616c60008301527f6c20746869732066756e6374696f6e00000000000000000000000000000000006020830152604082019050919050565b600061182c602c83611da8565b91507f6f6e6c79206f7267616e697a6174696f6e2063616e2063616c6c20746865206c60008301527f696b652066756e6374696f6e00000000000000000000000000000000000000006020830152604082019050919050565b6000611892601783611da8565b91507f546865206f7264657220646f65736e27742065786973740000000000000000006000830152602082019050919050565b60006118d2601383611da8565b91507f526563656970747320697320696e76616c6964000000000000000000000000006000830152602082019050919050565b6000611912602783611da8565b91507f54686520627579657220646f65736e2774206861766520656e6f75676820616c60008301527f6c6f77616e6365000000000000000000000000000000000000000000000000006020830152604082019050919050565b6000611978602483611da8565b91507f546865207072696365206973206c657373207468616e207468652061736b207060008301527f72696365000000000000000000000000000000000000000000000000000000006020830152604082019050919050565b60006119de601883611da8565b91507f53656c6c65722061646472657373206d69736d736174636800000000000000006000830152602082019050919050565b6000611a1e602883611da8565b91507f5468652070726963652069732067726561746572207468616e2074686520626960008301527f6420616d6f756e740000000000000000000000000000000000000000000000006020830152604082019050919050565b6000611a84601783611da8565b91507f42757965722061646472657373206d69736d73617463680000000000000000006000830152602082019050919050565b611ac081611ee5565b82525050565b611ad7611ad282611ee5565b611f13565b82525050565b6000611ae98285611592565b601482019150611af98284611ac6565b6020820191508190509392505050565b6000604082019050611b1e6000830185611583565b611b2b6020830184611583565b9392505050565b6000606082019050611b476000830186611583565b611b546020830185611583565b611b616040830184611ab7565b949350505050565b6000604082019050611b7e6000830185611583565b611b8b6020830184611ab7565b9392505050565b6000602082019050611ba760008301846115a9565b92915050565b6000602082019050611bc260008301846115b8565b92915050565b60006020820190508181036000830152611be1816115c7565b9050919050565b60006020820190508181036000830152611c0181611607565b9050919050565b60006020820190508181036000830152611c218161166d565b9050919050565b60006020820190508181036000830152611c41816116ad565b9050919050565b60006020820190508181036000830152611c6181611713565b9050919050565b60006020820190508181036000830152611c8181611753565b9050919050565b60006020820190508181036000830152611ca1816117b9565b9050919050565b60006020820190508181036000830152611cc18161181f565b9050919050565b60006020820190508181036000830152611ce181611885565b9050919050565b60006020820190508181036000830152611d01816118c5565b9050919050565b60006020820190508181036000830152611d2181611905565b9050919050565b60006020820190508181036000830152611d418161196b565b9050919050565b60006020820190508181036000830152611d61816119d1565b9050919050565b60006020820190508181036000830152611d8181611a11565b9050919050565b60006020820190508181036000830152611da181611a77565b9050919050565b600082825260208201905092915050565b6000611dc482611ee5565b9150611dcf83611ee5565b9250827fffffffffffffffffffffffffffffffffffffffffffffffffffffffffffffffff03821115611e0457611e03611f1d565b5b828201905092915050565b6000611e1a82611ee5565b9150611e2583611ee5565b9250817fffffffffffffffffffffffffffffffffffffffffffffffffffffffffffffffff0483118215151615611e5e57611e5d611f1d565b5b828202905092915050565b6000611e7482611ee5565b9150611e7f83611ee5565b925082821015611e9257611e91611f1d565b5b828203905092915050565b6000611ea882611ec5565b9050919050565b60008115159050919050565b6000819050919050565b600073ffffffffffffffffffffffffffffffffffffffff82169050919050565b6000819050919050565b6000611efa82611f01565b9050919050565b6000611f0c82611f4c565b9050919050565b6000819050919050565b7f4e487b7100000000000000000000000000000000000000000000000000000000600052601160045260246000fd5b60008160601b9050919050565b611f6281611e9d565b8114611f6d57600080fd5b50565b611f7981611eaf565b8114611f8457600080fd5b50565b611f9081611ebb565b8114611f9b57600080fd5b50565b611fa781611ee5565b8114611fb257600080fd5b5056fea264697066735822122067ca13b698eea4a29dcad6c788f5d18976e3c0be397ee5aa177a71c4f76d391164736f6c63430008000033",
  "immutableReferences": {},
  "source": "// SPDX-License-Identifier: MIT\r\npragma solidity >=0.4.22 <0.9.0;\r\nimport \"@openzeppelin/contracts/token/ERC20/ERC20.sol\";\r\n\r\n\r\n//minimize the number of contract calls for single transaction\r\n//maximize the number of transaction\r\ncontract Page{\r\n\r\n    struct Order{\r\n        address customer;\r\n        bool purchase;\r\n        uint amount;\r\n        uint quantity;\r\n        bytes32 receipt;\r\n        bool valid;\r\n    }  \r\n\r\n    mapping(address => uint) share;\r\n    mapping(bytes32 => Order) orders;\r\n    mapping(bytes32 => bool) receipts;\r\n    address org;\r\n    string name;\r\n    uint likes;\r\n    ERC20 usdc;\r\n\r\n    constructor(string memory _name, uint nstocks, address owner, address _token) {\r\n        name=_name;\r\n        org=msg.sender;\r\n        share[owner]=nstocks;\r\n        likes=0;\r\n        usdc = ERC20(_token);\r\n    }\r\n\r\n    function like() public {\r\n        require(msg.sender==org, \"only organization can call the like function\");\r\n        likes += 1;\r\n    }\r\n    \r\n\r\n    function makeDeal(address buyer, address seller, uint nstocks, uint amount, bytes32 ask_receipt, bytes32 bid_receipt) public returns(bool) {\r\n        require(msg.sender==org, \"only organization can confirm the deal\");\r\n        require(receipts[ask_receipt] && receipts[bid_receipt], \"Receipts is invalid\");\r\n        Order memory ask_order=orders[ask_receipt];\r\n        Order memory bid_order = orders[bid_receipt];\r\n        require(amount > ask_order.amount, \"The price is less than the ask price\");\r\n        require(amount < bid_order.amount, \"The price is greater than the bid amount\");\r\n        require(share[seller] >= nstocks, \"The seller doesn't have enough share\");\r\n        require(usdc.allowance(buyer, address(this)) >= amount, \"The buyer doesn't have enough allowance\");\r\n        usdc.transferFrom(msg.sender, address(this), amount);\r\n        usdc.transfer(seller, amount);\r\n\r\n\r\n        share[seller] -= nstocks;\r\n        share[buyer] += nstocks;\r\n        usdc.transfer(seller, amount);\r\n\r\n\r\n        return true;\r\n    }\r\n\r\n    function bid(address buyer, uint nstocks, uint price) payable public returns(bytes32){\r\n        require(msg.sender==org, \"only the market contract can call this function\");\r\n        bytes32 receipt = keccak256(abi.encodePacked(buyer, block.timestamp));\r\n        Order memory order = Order(buyer, true, price*nstocks, nstocks, receipt, true);\r\n        orders[receipt]=order;\r\n        return receipt;\r\n    }\r\n\r\n    function ask(address seller, uint nstocks, uint price) public payable returns(bytes32){\r\n        require(msg.sender==org, \"only the market contract can call this function\");\r\n        bytes32 receipt = keccak256(abi.encodePacked(seller, block.timestamp));\r\n        Order memory order = Order(seller, false, price*nstocks, nstocks, receipt, true);\r\n        orders[receipt]=order;\r\n        return receipt;\r\n    }\r\n\r\n    function cancelBid(address buyer, bytes32 receipt_addr) public returns(bool){\r\n        require(msg.sender==org, \"only the market contract can call this function\");\r\n        require(receipts[receipt_addr]==true, \"The order doesn't exist\");\r\n        require(orders[receipt_addr].receipt == receipt_addr, \"The order has different receipt\");\r\n        require(orders[receipt_addr].valid, \"The order is not valid. Is already cancelled\");\r\n        require(orders[receipt_addr].customer==buyer, \"Buyer address mismsatch\");\r\n        require(orders[receipt_addr].purchase, \"The order is a seller order\");\r\n        receipts[receipt_addr]=false;\r\n        orders[receipt_addr].valid=false;\r\n        return true;\r\n    }\r\n\r\n    function cancelAsk(address seller, bytes32 receipt_addr) public returns(bool){\r\n        require(msg.sender==org, \"only the market contract can call this function\");\r\n        require(receipts[receipt_addr]==true, \"The order doesn't exist\");\r\n        require(orders[receipt_addr].receipt == receipt_addr, \"The order has different receipt\");\r\n        require(orders[receipt_addr].valid, \"The order is not valid. Is already cancelled\");\r\n        require(orders[receipt_addr].customer==seller, \"Seller address mismsatch\");\r\n        require(orders[receipt_addr].purchase==false, \"The order is a buyer order\");\r\n        receipts[receipt_addr]=false;\r\n        orders[receipt_addr].valid=false;\r\n        return true;\r\n    }\r\n\r\n    \r\n}\r\n\r\ncontract Market{\r\n\r\n    address[] pages;\r\n    mapping(address => uint) rem_reactions;\r\n    mapping(address => uint) subscribers;\r\n    address org;\r\n    address token;\r\n    uint subscription_fee;\r\n    ERC20 usdc;\r\n\r\n    constructor(uint _fee, address _token){\r\n        org = msg.sender;\r\n        subscription_fee = _fee;\r\n        token=_token;\r\n        usdc=ERC20(_token);\r\n    }\r\n\r\n\r\n    function deposit(uint256 amount) public returns (bool) {\r\n        uint256 allowance = usdc.allowance(msg.sender, address(this));\r\n        require(allowance >= amount, \"Allowance is not adequete\");\r\n        usdc.transferFrom(msg.sender, address(this), amount);\r\n        return true;\r\n    }\r\n\r\n    function ipo(string memory _name, uint nstocks) public returns(address) {\r\n        Page page = new Page(_name, nstocks, msg.sender, token);\r\n        pages.push(address(page));\r\n        return address(page);\r\n    }\r\n\r\n    function subscribe(uint validity) public {\r\n        deposit(validity*subscription_fee);\r\n        subscribers[msg.sender]=block.timestamp + validity * 1 days;\r\n    }\r\n\r\n    function like(address page_addr) public {\r\n        address user = msg.sender;\r\n        require(subscribers[user]!=0, \"The user has not subscribered\");\r\n        require(rem_reactions[user] > 0, \"The user has no reactions left\");\r\n        Page page = Page(page_addr);\r\n        page.like();\r\n    }\r\n\r\n    function bid(address page_addr, uint nstocks, uint price) public returns(bytes32) {\r\n        Page page = Page(page_addr);\r\n        require(usdc.allowance(msg.sender, page_addr) > nstocks*price, \"Not enough allowance\");\r\n        return page.bid(msg.sender, nstocks, price);\r\n    }\r\n\r\n    function ask(address page_addr, uint nstocks, uint price) public returns(bytes32){\r\n        Page page = Page(page_addr);\r\n        return page.ask(msg.sender, nstocks, price);\r\n    }\r\n\r\n    function cancelBid(address page_addr, bytes32 receipt) public returns (bool){\r\n        Page page = Page(page_addr);\r\n        page.cancelBid(msg.sender, receipt);\r\n        return true;\r\n    }\r\n\r\n    function cancelAsk(address page_addr, bytes32 receipt) public returns (bool){\r\n        Page page = Page(page_addr);\r\n        page.cancelAsk(msg.sender, receipt);\r\n        return true;\r\n    }\r\n\r\n    function makeDeal(address page_addr, address buyer, address seller, uint nstocks, uint amount, bytes32 ask_receipt, bytes32 bid_receipt) public {\r\n        require(msg.sender==org, \"only organization can confirm the deal\");\r\n        Page page = Page(page_addr);\r\n        page.makeDeal(buyer, seller, nstocks, amount, ask_receipt, bid_receipt);\r\n    }\r\n\r\n}",
  "sourcePath": "D:/projects/hackthemountains/Xcalate/SmartContracts/contracts/Page.sol",
  "compiler": {
    "name": "solc",
    "version": "0.8.0+commit.c7dfd78e.Emscripten.clang"
  },
  "schemaVersion": "3.4.1",
  "updatedAt": "2021-06-27T03:33:01.334Z",
  "networkType": "ethereum",
  "devdoc": {
    "kind": "dev",
    "methods": {},
    "version": 1
  },
  "userdoc": {
    "kind": "user",
    "methods": {},
    "version": 1
  }
}